:1000000041C0000066C0000064C0000062C0000083
:1000100060C000005EC000005CC000005AC000006C
:1000200058C000000C94CA1054C0000052C0000018
:1000300050C000000C94BC0D4CC000004AC0000031
:1000400048C0000046C0000044C0000042C000009C
:1000500040C000003EC000003CC000003AC00000AC
:1000600038C0000036C00000320B380B3B0B3E0B93
:10007000410B440B470B4A0B4D0B500B530B560BCC
:100080006411651111241FBECFEFD8E0DEBFCDBFD4
:1000900012E0A0E0B1E0ECE3F1E302C005900D92C4
:1000A000AA3AB107D9F712E0AAEAB2E001C01D925C
:1000B000AF3EB107E1F710E0C2E8D0E004C02297FC
:1000C000FE010E940E17C038D107C9F704D00C9466
:1000D000921896CFFFCFA5E6B1E0E1E7F0E00C94EF
:1000E000DB160E944D1123E1E22EF12CEC0EFD1ED9
:1000F000C701B2D1CE010196B70106D68E01065CCA
:100100001F4FC801B70115D3C7010BD1C70160E06C
:1001100071E009D1D02E012F8D2D902F79D212C0F0
:10012000C701FFD0C70162E171E0FDD0C70160E007
:1001300041E0F3D0C7016CE171E0F5D0C7016AE09E
:1001400070E0E8D0C70160E3D7D0882349F3C70146
:1001500060E1D2D0882301F7C701B2D0FC018081D1
:1001600091810E94871893E1C92ED12CCC0EDD1EFF
:100170004E010894811C911C8AE3A82EB12CAC0E70
:10018000BD1EC601C5D07B018C01C601CAD0C60107
:1001900066E271E0C8D0C601F9D0C401B801A70178
:1001A000C4D4C501B801A70191D1C50189D18C0181
:1001B0008FEF0F3F180729F3C80181729070819764
:1001C00001F70532110529F48BE291E00E94B10D8F
:1001D0000FC00B321105A9F20132110519F402E02A
:1001E00010E015C00332110519F400E010E00FC053
:1001F0000532110519F401E010E009C007321105BC
:1002000021F00932110509F0BCCF0FEF1FEF0E945A
:10021000841863E070E00E94851680179107B9F397
:10022000B0CFFC0181E391E091838083738362838B
:100230000895FC0181E391E091838083738362835D
:100240000895FC01828193810895FC01CB018150C6
:100250009F4F8F5F914010F4728361830895FC017A
:10026000CB0181509F4F8F5F914010F47483638363
:100270000895FC01CB0181509F4F8F5F914010F496
:1002800072836183CA0181509F4F8F5F914010F448
:10029000548343830895FC01818192810895FC0178
:1002A000838194810895FC0181819281238134812D
:1002B000820F931F62E070E00E948516CB010895C3
:1002C0009C01295F3F4FC90108959C012F5E3F4F5C
:1002D000C90108959C01255E3F4FC9010895FC01A5
:1002E00076A365A30895FC0185A196A108959C01BC
:1002F0002B5F3F4FC9010895862F0C944110862F24
:100300000C94C310862F0C945C10862F0C948D10C7
:100310000C943911CB010C940911862F642F0C9485
:10032000A60E0C94C00ECB010C94750FCB01BA0134
:100330000C945A0F0F931F93CF93DF938C01CCEE45
:10034000DFEFC832D10528F08EE190E062EE7FEF5A
:1003500004C082EE9FEF6EE170E00E943810C80189
:1003600061E00E946E1184E190E00E9409112196E3
:10037000CC33D10531F780E090E060E070E00E947E
:100380003810DF91CF911F910F910895CF93DF9394
:10039000EC016B817C8189819A810E943810CE01A9
:1003A000079661E00E947111CE014B9661E00E94B8
:1003B0006811FE0120E030E0838D948D8B3F910524
:1003C00018F480E090E002C082E090E0928B818B94
:1003D0002F5F3F4F32962530310571F786E00E943E
:1003E000230A40E02DA13EA18217930708F441E0C3
:1003F0004D8387E00E94230A40E02DA13EA1821791
:10040000930708F441E04E83DF91CF910895EF9276
:10041000FF920F931F938C017B010E94C00E83E318
:1004200091E00E94750F80E061E00E94A60EC70176
:100430000E94750FF8011282118214821382C80182
:10044000A5DF80E10E948D101F910F91FF90EF902A
:1004500008956CE371E0DBCF0F931F938C0180ED67
:1004600097E060E00E94771182EC91E0F80196A39A
:1004700085A3C8016DE371E0CADFC8015BDFC80175
:1004800062E471E0C4DF1F910F9108950F931F93F1
:100490008C0180ED97E060E00E94771182EC91E0A2
:1004A000F80196A385A3C8016DE371E0B0DFC80130
:1004B00041DFC80162E471E0AADF1F910F91089546
:1004C000FC01EA5DFE4F808191810895A0E0B0E0DB
:1004D000ECE6F2E00C94D516EC015A016B018C812C
:1004E0009D81AE81BF8126E2822E21E0922E8C0E6C
:1004F0009D1E481759076A077B0708F47FC0E884E8
:10050000F9840A851B85CE019CDECDDE25E430E032
:10051000A901849F9001859F300D949F300D112477
:10052000442737FD4095542FC801B7010E94981603
:100530002A0D3B1D4C1D5D1D2C833D834E835F8327
:100540009CE0A92EB12CAC0EBD1EC50165E470E087
:10055000A7D17B018C01CE0174DEBCDEFC0144819D
:10056000558160E070E04E0D5F1D601F711FC50179
:1005700078D1F40111821082C0E0D0E0CC24DD24D7
:10058000240181E0282E312C3E010894611C711C4D
:10059000B601675F7F4FC50183D17B018C01C50127
:1005A000B6017ED1E61AF70A080B190BC801B7018C
:1005B00029E030E040E050E00E949816F2E02D3B48
:1005C0003F0794F42C52314021593140B8F4C10115
:1005D00002C0880F991FCA95E2F7F201208131818C
:1005E000822B932B918380834AE050E0C40ED51E6A
:1005F00056E06516710439F0E301C6CF8FEF9FEF27
:10060000F40191838083CDB7DEB7E2E10C94F1165B
:100610004F925F927F928F929F92AF92BF92CF92B2
:10062000DF92EF92FF920F931F93CF93DF93EC0132
:10063000882E7D2E06DE62E370E042E350E019DE94
:10064000CE01FFDDA3DECE01FCDD44DE2C0100E0A7
:1006500010E0AA24BB2465019924EE24FF24C801DC
:10066000880F991F080F191FF20184819581080FC7
:10067000191F1695079516950795882D972DE1DD7D
:1006800085DE992061F4F1E0053F1F07BCF088E4A6
:1006900091E00E94B10D0E9439115B016C0181E073
:1006A000043F18074CF48AE491E00E94B10D0E94C7
:1006B00039117B018C0111C09924939481E090E061
:1006C0000E9409110894E11CF11CE8EBEE16EBE026
:1006D000FE0629F6EE24FF248701882D972DB1DD33
:1006E00060E070E040E050E0C4DD882D972DA9DD8A
:1006F0004DDEEA18FB080C091D09C801B70122E309
:1007000030E040E050E00E944616688779878A878B
:100710009B87DF91CF911F910F91FF90EF90DF901A
:10072000CF90BF90AF909F908F907F905F904F90B1
:100730000895AAE1B1E0EFE9F3E00C94DF166C0153
:1007400070DD80E591E0F601918380835CE0E52E29
:10075000F12CEC0CFD1CC70170D0F601148215823F
:100760001682178210861186128613868E010F5FFD
:100770001F4FC80162D0D701F8018AE191E00190D2
:100780000D920197E1F788E291E0C80ED91E82E34D
:1007900090E0F60191838083C65EDE4FE8E00C9422
:1007A000FB16AAE1B1E0E7EDF3E00C94DF166C0173
:1007B00038DD80E591E0F601918380836CE0E62EE0
:1007C000F12CEC0CFD1CC70138D0F6011482158207
:1007D0001682178210861186128613868E010F5F8D
:1007E0001F4FC8012AD0D701F8018AE191E001909A
:1007F0000D920197E1F788E291E0C80ED91E82E3DD
:1008000090E0F60191838083C65EDE4FE8E00C94B1
:10081000FB16DC0180E090E0FD01E80FF91F10827B
:10082000118212821382049621E088319207A1F787
:10083000A85EBE4F1D921C920895DC0180E090E0FE
:10084000FD01E80FF91F10821182128213820496B3
:1008500021E088319207A1F7A85EBE4F1D921C923D
:1008600008950F931F939C018C01085E1E4FF801A1
:1008700080819181FC01EE0FFF1FEE0FFF1FE20F41
:10088000F31F4083518362837383019666E470E0B3
:100890000E948516F801918380831F910F9108951E
:1008A000FC01CB01E85EFE4F20813181E851F1402F
:1008B000820F931F66E470E00E948516880F991FCF
:1008C000880F991FE80FF91F6081718182819381E0
:1008D0000895FC0175836483578346830895FC0162
:1008E00015861486738762870895FC0140E024858D
:1008F000358582859385821793070CF441E0842F18
:100900000895A0E0B0E0E7E8F4E00C94DD16EC0117
:1009100098DCDBDC5C0188859985009709F07AC05A
:10092000CE018FDC62E571E0FEDCF501848195810A
:10093000029739F4CE0185DC6C817D814E815F8127
:100940004CC0F501828193810297F1F4CE0179DCEC
:100950006C016C817D81882777FD8095982FF3D27B
:1009600021EE3AE744E55FE3F7D149D37B018C01FF
:100970006E817F81882777FD8095982FE4D221EEC4
:100980003AE744E95FE322C0F50186819781029747
:1009900029F5CE0156DC6C016C817D81882777FDBD
:1009A0008095982FD0D221EE3AE744E95FE3D4D185
:1009B00026D37B018C016E817F81882777FD80950E
:1009C000982FC1D221EE3AE744E55FE3C5D117D3B2
:1009D0009B01AC01C601B701A9014BDCF501808187
:1009E0009181029709F09CC08C859D852A853B8565
:1009F000009751F4232B19F483E090E002C085E0C6
:100A000090E0998788878CC028173907C1F381E067
:100A100090E0F7CF81309105A9F4CE0112DC6AE5B0
:100A200071E081DCCE010DDC6C817D814E815F81C6
:100A300020DCF50184819581892B09F071C082E069
:100A400090E0DFCF82309105A9F4CE01FADB6FE5AB
:100A500071E069DCCE01F5DB9C018C819D8162E057
:100A600070E00E948516709561957F4F4E815F8181
:100A7000C90131C083309105A9F4CE01E2DB65E6FE
:100A800071E051DCCE01DDDB6C817D814E815F81C7
:100A9000F0DBF50184819581892B09F041C084E068
:100AA00090E0AFCF84309105E9F4CE01CADB6BE66C
:100AB00071E039DCCE01C5DB9C01EC81FD818E81CA
:100AC0009F8162E070E00E948516AB0150954195D0
:100AD0005F4FC901BF01CDDBF5018481958102978C
:100AE000F9F417C00597E1F4CE01ABDB62E771E0E2
:100AF0001ADCCE01A6DB6C817D814E815F81B9DB82
:100B0000F50180819181892B59F480859185892B0C
:100B100039F4198618868C859D8501969D878C876A
:100B2000CDB7DEB7EAE00C94F916A0E0B0E0EBE94F
:100B3000F5E00C94DD16EC0184DBC7DB5C01CE0133
:100B400080DBEFDB88859985009709F071C0CE01C5
:100B500078DB62E571E0E7DBF5018481958102973E
:100B600039F4CE016EDB6C817D814E815F814CC09A
:100B7000F501828193810297F1F4CE0162DB6C0171
:100B80006C817D81882777FD8095982FDCD121EEBF
:100B90003AE744E55FE3E0D032D27B018C016E811D
:100BA0007F81882777FD8095982FCDD121EE3AE778
:100BB00044E95FE322C0F50186819781029729F518
:100BC000CE013FDB6C016C817D81882777FD8095AC
:100BD000982FB9D121EE3AE744E95FE3BDD00FD2B7
:100BE0007B018C016E817F81882777FD8095982F0E
:100BF000AAD121EE3AE744E55FE3AED000D29B01F3
:100C0000AC01C601B701A90134DBF50180819181F6
:100C1000029719F481E090E008C0F5018085918584
:100C2000029709F06CC083E090E09987888767C0DD
:100C300081309105A9F4CE0104DB6AE571E073DB34
:100C4000CE01FFDA6C817D814E815F8112DBF5017F
:100C500084819581892B09F052C082E090E0E5CF34
:100C600082309105A9F4CE01ECDA6FE571E05BDB2F
:100C7000CE01E7DA9C018C819D8162E070E00E94E8
:100C80008516709561957F4F4E815F81C9012FC098
:100C900083309105A1F4CE01D4DA65E671E043DB3F
:100CA000CE01CFDA6C817D814E815F81E2DAF50180
:100CB00084819581892B19F584E090E0B6CF049763
:100CC000F1F4CE01BEDA6BE671E02DDBCE01B9DACC
:100CD0009C01EC81FD818E819F8162E070E00E9429
:100CE0008516AB01509541955F4FC901BF01C1DA2F
:100CF000F50184819581029711F419861886CDB784
:100D0000DEB7EAE00C94F9160F931F938C0189DA91
:100D10008FE791E0F80191838083118610868CE340
:100D200090E095838483978386831F910F91089524
:100D30000F931F938C0175DA8FE791E0F80191838F
:100D40008083118610868CE390E09583848397835B
:100D500086831F910F910895A0E2B0E0E2EBF6E0E8
:100D60000C94D51669837A838B839C832D833E8371
:100D70004F835887CE010196BE01675F7F4FB6D281
:100D8000CE010596BE016F5E7F4FB0D2998592303D
:100D900088F089898230C8F0943019F4823051F497
:100DA00004C0843029F4923081F488E991E0C6C00F
:100DB000923049F420E09A858A89981321E02A87A5
:100DC000CE010996BBC0823049F420E09A858A8919
:100DD000981321E02A8BCE014196B0C02D843E8429
:100DE0004F8458886D887E888F88988CEE24FF24E5
:100DF0008701AA24BB24650140E050E060E070E078
:100E0000E0E0F0E0C10181709070892BE9F0E60C20
:100E1000F71C081D191D9A01AB012A0D3B1D4C1D25
:100E20005D1D80E090E0A0E0B0E0E614F704080566
:100E3000190520F481E090E0A0E0B0E0BA01A9013A
:100E4000480F591F6A1F7B1FAA0CBB1CCC1CDD1C42
:100E500097FE08C081E090E0A0E0B0E0A82AB92A9F
:100E6000CA2ADB2A3196E032F10549F0660C771C7C
:100E7000881C991C5694479437942794C3CFFA85BD
:100E8000EA892B893C898B859C85280F391F2E5F29
:100E90003F4F17C0CA0181709070892B61F0169581
:100EA0000795F794E79480E090E0A0E0B0E8E82AA6
:100EB000F92A0A2B1B2B76956795579547952F5F37
:100EC0003F4F77FDE7CF0CC0440F551F661F771FBC
:100ED00017FD4160EE0CFF1C001F111F2150304018
:100EE000403090E0590790E0690790E4790760F39B
:100EF0002B8F3C8FDB01CA018F779070A070B07090
:100F000080349105A105B10561F447FD0AC0E114E3
:100F1000F1040105110529F0405C5F4F6F4F7F4FD1
:100F200040781A8EFE1711F081E08A8F4D8F5E8F08
:100F30006F8F78A383E0898FCE01499602D1A09666
:100F4000E2E10C94F116A8E0B0E0E9EAF7E00C94D5
:100F5000DE169B01AC0183E08983DA01C901882791
:100F6000B7FD83959927AA27BB27B82E21153105F0
:100F70004105510519F482E0898339C08823A9F01D
:100F8000203080E0380780E0480780E8580729F4DF
:100F900060E070E080E09FEC2EC0EE24FF2487012B
:100FA000E21AF30A040B150B02C079018A018EE1E3
:100FB000C82ED12CDC82CB82ED82FE820F83188773
:100FC000C801B7016FD001971816190684F4082ECE
:100FD00004C0EE0CFF1C001F111F0A94D2F7ED8213
:100FE000FE820F831887C81AD90ADC82CB82BA82A4
:100FF000CE010196A6D02896E9E00C94FA16ACE052
:10100000B0E0E5E0F8E00C94E51669837A838B8321
:101010009C83CE010196BE016B5F7F4F67D18D81AE
:10102000823061F1823050F1843021F48E81882346
:1010300051F12EC02F81388537FD20C06E812F31B0
:1010400031051CF06623F9F023C08EE190E0821B8D
:10105000930B29853A854B855C8504C05695479549
:10106000379527958A95D2F76623B1F0509540952C
:10107000309521953F4F4F4F5F4F0EC020E030E03D
:1010800040E050E009C02FEF3FEF4FEF5FE704C0B3
:1010900020E030E040E050E8B901CA012C96E2E0DF
:1010A0000C940117EF92FF920F931F937B018C0119
:1010B00080E0E81680E0F80681E0080780E0180785
:1010C00088F48FEFE816F1040105110531F028F0DE
:1010D00088E090E0A0E0B0E017C080E090E0A0E001
:1010E000B0E012C080E0E81680E0F80680E0080773
:1010F00081E0180728F088E190E0A0E0B0E004C0AB
:1011000080E190E0A0E0B0E020E230E040E050E09C
:10111000281B390B4A0B5B0B04C016950795F794F7
:10112000E7948A95D2F7F701E056FE4F8081281B9D
:10113000310941095109C9011F910F91FF90EF90A9
:101140000895DF92EF92FF920F931F93FC01E480CA
:10115000F58006811781D1808081823048F480E05B
:1011600090E0A0E1B0E0E82AF92A0A2B1B2BA5C0E9
:10117000843009F49FC0823021F4EE24FF248701DB
:1011800005C0E114F1040105110519F4E0E0F0E0F7
:1011900096C0628173819FEF623879070CF05BC063
:1011A00022E83FEF261B370B2A3131052CF020E0D7
:1011B00030E040E050E02AC0B801A701022E04C090
:1011C00076956795579547950A94D2F781E090E018
:1011D000A0E0B0E004C0880F991FAA1FBB1F2A958A
:1011E000D2F70197A109B1098E219F21A023B12334
:1011F0000097A105B10521F081E090E0A0E0B0E00A
:101200009A01AB01282B392B4A2B5B2BDA01C90140
:101210008F779070A070B07080349105A105B105F2
:1012200039F427FF09C0205C3F4F4F4F5F4F04C088
:10123000215C3F4F4F4F5F4FE0E0F0E02030A0E0F7
:101240003A07A0E04A07A0E45A0710F0E1E0F0E016
:1012500079018A0127C06038710564F5FB01E15806
:10126000FF4FD801C7018F779070A070B0708034A5
:101270009105A105B10539F4E7FE0DC080E490E0C9
:10128000A0E0B0E004C08FE390E0A0E0B0E0E80EA2
:10129000F91E0A1F1B1F17FF05C016950795F79427
:1012A000E794319687E016950795F794E7948A9529
:1012B000D1F705C0EE24FF248701EFEFF0E06E2F99
:1012C000679566276795902F9F77D794DD24D794ED
:1012D0008E2F8695492F462B582F5D29B701CA01BD
:1012E0001F910F91FF90EF90DF900895FC01DB01BB
:1012F000408151812281622F6F7770E0221F222767
:10130000221F9381892F880F822B282F30E0991F6D
:101310009927991F11969C93119721153105A9F5CD
:10132000411551056105710511F482E037C082E86D
:101330009FEF13969C938E9312979A01AB0167E0EF
:10134000220F331F441F551F6A95D1F783E08C93FA
:101350000DC0220F331F441F551F12968D919C9173
:101360001397019713969C938E931297203080E0E9
:10137000380780E0480780E4580758F314962D9307
:101380003D934D935C93179708952F3F310579F462
:10139000411551056105710519F484E08C93089598
:1013A00064FF03C081E08C9312C01C9210C02F57C1
:1013B000304013963C932E93129783E08C9387E0F2
:1013C000440F551F661F771F8A95D1F770641496D6
:1013D0004D935D936D937C9317970895382F8031CB
:1013E00088F528B181E090E0032E02C0880F991F94
:1013F0000A94E2F78095282328B927B1822387B978
:1014000087E880937A0080917C00806480937C00E0
:10141000662321F080917C00806803C080917C006D
:101420008F7780937C0080917C00807E80937C000D
:1014300080917C00832B80937C0080917A00806473
:1014400080937A0008950F931F9307B118B160E05D
:10145000C5DF80917A0086FDFCCF18B907B980916D
:101460007C0085FF05C080917900282F30E004C002
:101470002091780030917900C9011F910F91089552
:10148000A0E0B0E0E6E4FAE00C94DD16FC015B01BC
:10149000C42E8091AA028823C1F481E08093AA021D
:1014A00010926F0083E28093800081E1809381003D
:1014B0001092820080E197E29093890080938800E7
:1014C00010928B0010928A00229A10928101F7FDEF
:1014D00003C0DD24D39403C0FF772AE0D22E80918D
:1014E0008100082F10E0087F107088ECD89EC001A2
:1014F00011248E179F07C0F4EF0187E2E131F8074E
:1015000010F0C0E1D7E2BE017695679580E090E0EB
:101510006058794687469F4F9E0140E050E00E9408
:1015200098167901016024C088E2D89E802D11248C
:10153000C82FD0E0CE17DF0708F4EF01BE01769583
:1015400067959E0140E050E08AE0D81639F480E0CB
:1015500090E0605E734481449F4F06C080E090E05D
:1015600060537D4E8C4E9F4F0E9498167901026009
:101570008AE0D81639F4CE0105966AE070E00E9440
:101580007116EB0183E0C83ED80711F4B5010FC016
:10159000BE0180E090E0950140E050E00E944616D8
:1015A00028EE33E040E050E00E94BA16B9011092F4
:1015B0006F0000938100F0928900E0928800E09132
:1015C0008800F0918900AC2DA03108F0AFE080E1F7
:1015D00090E08A1B910902C0F695E7958A95E2F79B
:1015E000F0938B00E0938A007093B2026093B10293
:1015F00086B38FEF86BB81E080936F007894CDB780
:10160000DEB7EAE00C94F916CF93DF93EB018F3F3E
:1016100011F0442329F488EE93E0BE0140E067C056
:10162000813110F420E005C0282F2051203608F029
:101630002FE5822F6CE00E946516382F682F70E02E
:1016400084EF9FEF689FF001699FF00D789FF00D88
:101650001124E20FF11DEC30F10538F4EC5CFF4F82
:101660000C940C178CE991E023C080E090E020C03E
:1016700085EB91E01DC08FEC91E01AC08AEE91E0FD
:1016800017C087E092E014C086E292E011C087E4C0
:1016900092E00EC089E692E00BC08EE892E008C0AE
:1016A00085EB92E005C08EED92E002C08AE093E007
:1016B000373071F002C0880F991F6A95E2F7323017
:1016C00020F005966AE070E00BC0805090480BC097
:1016D00036E0880F991F3A95E1F7029665E070E0D1
:1016E0000E947116CB01403108F04FE0BE01C8DE08
:1016F000DF91CF9108953091AF02E091AB02F0916C
:10170000AC02332311F0249101C02081822F815437
:101710008A3108F4205E203221F43196CF010197FE
:1017200081F7F093AC02E093AB02822F0895CF9340
:10173000DF93E1DF282FC0E0D0E01CC0CE0153E0F2
:10174000880F991F5A95E1F7CC0FDD1FC80FD91FDD
:10175000822F992787FD9095C80FD91FE097809118
:10176000AB029091AC0201969093AC028093AB02D5
:10177000C2DF282F822F80538A3000F3CE01DF9101
:10178000CF910895A0E0B0E0E8ECFBE00C94DB160C
:1017900080908201B090AD02BB2021F06091AE023A
:1017A000662399F4A090AE02009187011091880100
:1017B000E0908301F0908401C0918501D091860171
:1017C000C0908901D0908A0103C18FEF70E040E0A2
:1017D0001BDF1092AE02C0C194E0892EBB2404EF3F
:1017E00011E084E0E82EF12CC0EDD7E0B4E09B2EB0
:1017F000AFE0CA2ED12C7FDF282F8091AB029091D1
:10180000AC0201969093AC028093AB02263609F4A9
:1018100098C02736CCF42236A1F1233674F42E3347
:1018200061F12F3334F42132B9F22C3309F006C1BF
:1018300026C0213609F002C11CC1243609F451C06A
:1018400025360CF066C035C02F3609F4BFC02037EE
:1018500054F42C3609F4A5C02D3609F4A5C027365A
:1018600009F0ECC086C0243709F4CEC0263709F44D
:10187000E2C0223709F0E2C0ADC08394BCCF8A94A5
:10188000BACFA092AE02B092AD021093880100933D
:101890008701F0928401E0928301D0938601C09386
:1018A000850190928201D0928A01C09289012BE039
:1018B000F7C0A092AE02B092AD02109388010093DF
:1018C0008701F0928401E0928301D0938601C09356
:1018D000850190928201D0928A01C092890120E014
:1018E000DFC0A092AE02B092AD02109388010093C7
:1018F0008701F0928401E0928301D0938601C09326
:10190000850190928201D0928A01C092890122E0E1
:10191000C7C0A092AE02B092AD02109388010093AE
:101920008701F0928401E0928301D0938601C093F5
:10193000850190928201D0928A01C092890124E0AF
:10194000AFC0A092AE02B092AD0210938801009396
:101950008701F0928401E0928301D0938601C093C5
:10196000850190928201D0928A01C092890125E07E
:1019700097C0A092AE02B092AD021093880100937E
:101980008701F0928401E0928301D0938601C09395
:10199000850190928201D0928A01C092890127E04C
:1019A0007FC0C5DE7C0141C0A6DE8C3611F4BB24AD
:1019B00003C0AA24BB24B3948091AB029091AC02E3
:1019C00001969093AC028093AB0215CFB0DE882EC7
:1019D000982C11CFA092AE02B092AD021093880164
:1019E00000938701F0928401E0928301D0938601F5
:1019F000C093850190928201D0928A01C0928901A0
:101A000020E0FF24F3944DC092DEBC0180EC9DE504
:101A10000E947116CB01EB01F3E0CC0FDD1FFA95AC
:101A2000E1F7880F991FC80FD91FCE01B7010E9497
:101A300071168B01E0CE7BDE6C01DDCEA092AE0292
:101A4000B092AD021093880100938701F092840157
:101A5000E0928301D0938601C09385019092820128
:101A6000D0928A01C09289011092AC021092AB020E
:101A700073C0A092AE02B092AD02109388010093A1
:101A80008701F0928401E0928301D0938601C09394
:101A9000850190928201D0928A01C092890129E049
:101AA000FF248CE0889EC0011124E22EE80E0AC0BB
:101AB0008091AB029091AC0201969093AC0280931E
:101AC000AB02E39418DE8B3299F3833289F30BC0B7
:101AD0008091AB029091AC0201969093AC028093FE
:101AE000AB02EA9408DE8D3299F3C0918701D09160
:101AF00088018153883050F400918501109186014E
:101B000016DEBC01C8010E947116EB018E010BC0EC
:101B10008091AB029091AC0201969093AC028093BD
:101B2000AB02C00FD11F16950795E5DD8E3281F30C
:101B30008091AD02882339F0CE01969587958093E8
:101B4000AE02C81BD109FF2011F0EE24EA948E2DBD
:101B5000BE014091890158DDCDB7DEB7ECE00C94B1
:101B6000F71610926F009093AC028093AB02109224
:101B7000AF021092AE0206CE1F920F920FB60F92D6
:101B800011242F933F934F935F936F937F938F9382
:101B90009F93AF93BF93EF93FF938091B102909186
:101BA000B20201979093B2028093B102019601F5BF
:101BB00080918100887F81608093810080E197E23D
:101BC000909389008093880010928B0010928A0075
:101BD00081E08093810110926F008091AB0290911F
:101BE000AC02892B29F08091B002882309F4CADD68
:101BF000FF91EF91BF91AF919F918F917F916F91E5
:101C00005F914F913F912F910F900FBE0F901F90BA
:101C1000189565B190E0AC0141705070440F551FAC
:101C20009C012670307053E0220F331F5A95E1F764
:101C3000422B6D7C462B45B92BB18870907034E0F7
:101C4000880F991F3A95E1F72F77282B2BB95C9ACB
:101C500081E090E0FC016F9364E06A95F1F76F9189
:101C60003197C9F75C986F9364E06A95F1F76F91CB
:101C70000197C9F70895A0E0B0E0E1E4FEE00C941C
:101C8000E016DAB057985A98289AF3D27B018C0163
:101C9000C1E0D0E05C9ACE016F9364E06A95F1F701
:101CA0006F910197C9F789B15C98FE016F9364E069
:101CB0006A95F1F76F913197C9F75C9AFE016F93BE
:101CC00064E06A95F1F76F913197C9F75C9887FFE7
:101CD0000AC0CFD26E197F09800B910B6A30710553
:101CE00081059105B8F2DAB8CDB7DEB7E7E00C941C
:101CF000FC16CF92DF92EF92FF920F931F93082F63
:101D0000162F71D0B8DFD4B0C5B0FAB0EBB05A9886
:101D100028988BB1110F110F812B8BB984B182637D
:101D200084B9579A802F82958F7073DF802F8F70C0
:101D300070DFFAB8EBB8D4B8C5B81F910F91FF9017
:101D4000EF90DF90CF90089560E0D3CFA2E0B0E0B5
:101D5000ECEAFEE00C94E316182F062F80E8898346
:101D600080EC8A83FE01E60FF11D8181810FECDF9B
:101D70001093B4020093B3022296E4E00C94FF1691
:101D800081E0E2DFEBE8F1E080E2819391E0E3398A
:101D9000F907D9F71092B4021092B3020895529A3B
:101DA000209A549A84E190E034D280E3CDDF86E03B
:101DB00090E02FD280E3C8DF82E090E02AD280E377
:101DC000C3DF82E090E025D280E2BEDF82E090E0D7
:101DD00020D288E2B9DF88E0B7DF81E0B5DF86E0B6
:101DE000B3DF8CE0B1CF8091B502882321F481E08C
:101DF0008093B502D4CF08956F927F928F929F9275
:101E0000AF92BF92CF92DF92FF920F93DF93CF9367
:101E1000CDB7DEB72A970FB6F894DEBF0FBECDBFA1
:101E20005B016C010AE03E010894611C711CFA2CF4
:101E3000C601B5012AE030E040E050E079D7C901A1
:101E4000DA015C016D0101504301800E911C80E3B9
:101E5000F80EC601B5012AE030E040E050E016D7A8
:101E6000F61AF401F082A114B104C104D104F9F608
:101E700008C0F601E00FF11D808161E03ADF0F5FDD
:101E800004C06E010894C11CD11C0A3090F32A963C
:101E90000FB6F894DEBF0FBECDBFCF91DF910F918B
:101EA000FF90DF90CF90BF90AF909F908F907F90EA
:101EB0006F900895EF92FF920F931F937B018C0117
:101EC00097FF0BC010950095F094E094E11CF11C75
:101ED000011D111D8DE261E00CDFC801B7018CDF2F
:101EE0001F910F91FF90EF900895CF93DF93EC0136
:101EF00003C0219661E0FDDE88818823D1F7DF9160
:101F0000CF910895282F883068F481E090E002C0D6
:101F1000880F991F2A95E2F7282FAAE2B0E0EBE29A
:101F2000F0E029C08E3080F430E02850304081E06D
:101F300090E002C0880F991F2A95E2F7282FA4E2AB
:101F4000B0E0E5E2F0E017C0853130F020E0A0E03D
:101F5000B0E0E0E0F0E00FC030E02E50304081E033
:101F600090E002C0880F991F2A95E2F7282FA7E278
:101F7000B0E0E8E2F0E06F3F19F48081822709C009
:101F8000662319F08081822B04C09081822F809576
:101F9000892380838C91822B8C930895E0EBF0E071
:101FA00083EF8083808184BDE1EBF0E082E0808379
:101FB000808185BDE4EBF0E010828081E3EBF0E00E
:101FC0008083808188BD88B587BD86E060E09ADF28
:101FD00085E060E097DF8BE060E094DF83E060E025
:101FE00091CF8091B602882321F481E08093B602DC
:101FF000D5CF0895CF93DF93EC01F3DFD7FD02C077
:1020000020E004C0D095C195DF4F21E0CE01CF3F45
:10201000D10519F014F08FEF90E0222319F018BCCD
:1020200087BD02C088BD17BCDF91CF910895CF93C3
:10203000DF93EC01D6DFD7FD02C020E004C0D095CD
:10204000C195DF4F21E0CE01CF3FD10519F014F04B
:102050008FEF90E0222329F01092B4008093B30018
:1020600004C08093B4001092B300DF91CF91089523
:102070000F931F938B01BEDFC801D9DF1F910F9112
:102080000895282F8091B702882391F481E08093EE
:10209000B70284B18D7C84B985B1826385B981E052
:1020A00090E06F9364E06A95F1F76F910197C9F73B
:1020B00083B18095822308951F93CF93DF93182FC8
:1020C0008091B702882391F481E08093B70284B1B4
:1020D0008D7C84B985B1826385B981E090E06F938E
:1020E00064E06A95F1F76F910197C9F7C12FD0E0CD
:1020F00083B190E08C239D23892BD1F38AE090E07B
:1021000088D083B190E08C239D23892B89F383B100
:102110008123DF91CF911F9108951F93CF93DF9378
:10212000182F8091B702882391F481E08093B70241
:1021300084B18D7C84B985B1826385B981E090E0FA
:102140006F9364E06A95F1F76F910197C9F7C12F1A
:10215000D0E083B190E0809590958C239D23892BCE
:10216000C1F38AE090E055D083B190E080959095DE
:102170008C239D23892B69F383B180958123DF9183
:10218000CF911F9108951F93C8DF182F95DF812FDE
:102190001F9108951F920F920FB60F9211242F9343
:1021A0003F934F938F939F93AF93BF932091BC0224
:1021B0003091BD02C90180509C4F9093BD02809325
:1021C000BC0280519742C8F08091B8029091B90248
:1021D000A091BA02B091BB020196A11DB11D8093DE
:1021E000B8029093B902A093BA02B093BB022051F7
:1021F00033423093BD022093BC02BF91AF919F91B7
:102200008F914F913F912F910F900FBE0F901F9084
:10221000189528EE33E009C0F9016F9364E06A95E0
:10222000F1F76F913197C9F701970097A9F70895D2
:10223000A0E7B0E08C918E7F8C93E0EBF0E08081A2
:1022400083608083E1EBF0E08081807F8083808108
:1022500082608083B89A8C9181608C937894089581
:102260008091BE02882321F481E08093BE02E0CFFA
:102270000895F6DFE0E7F0E080818E7F8083209193
:10228000B8023091B9024091BA025091BB028081EC
:1022900081608083B901CA010895E2DFE0E7F0E0E0
:1022A00080818E7F80831092B8021092B9021092C2
:1022B000BA021092BB021092BD021092BC02B89AF0
:1022C000808181608083089508958FEB92E0A7C399
:1022D0009C01462F8FEB92E0B901E9C28FEB92E0AF
:1022E000B5C49C01462F8FEB92E0B90147C20F9312
:1022F000DF93CF9300D000D00F92CDB7DEB79C0113
:10230000962FDE011196E3E9F1E085E001900D9250
:102310008150E1F7BE016F5F7F4F992329F08FEB6A
:1023200092E045E00FEF04C08FEB92E045E003E15F
:1023300077D08FEB92E05CD0B0DF0F900F900F90D2
:102340000F900F90CF91DF910F910895FC011182B2
:1023500010821382128215821482178216826131D2
:1023600018F080E1808701C06087208B483078F4C6
:1023700081E090E002C0880F991F4A95E2F78187BB
:102380008BE290E0938782878AE290E029C04E300A
:1023900098F4242F30E02850304081E090E002C0D3
:1023A000880F991F2A95E2F7818785E290E093874D
:1023B000828784E290E014C04431A8F4242F30E0F6
:1023C0002E50304081E090E002C0880F991F2A957E
:1023D000E2F7818788E290E09387828787E290E046
:1023E0009587848708951586148613861286089526
:1023F000DC011C96ED91FC911D97309781F0808156
:1024000019969C911997892B80831A96ED91FC91CE
:102410001B97908119968C918095892380830895CC
:10242000A0E0B0E0E5E1F2E1CAC4EC016B017901A2
:10243000642F402F20E08ADF19A61AA61BA6FF866C
:10244000EE8630E041E050E096E2E92EF12C03E226
:1024500010E069E270E055C0A32FB0E0F601EA0F8A
:10246000FB1F80818830B8F4FA0102C0EE0FFF1F15
:102470008A95E2F7CF01FE01EA0FFB1F818B2BA5A6
:10248000282B2BA7AA0FBB1FAC0FBD1F5A967C93FE
:102490006E93599735C08E30C8F490E00897FA01D2
:1024A00002C0EE0FFF1F8A95E2F7CF01FE01EA0F8F
:1024B000FB1F818B29A5282B29A7AA0FBB1FAC0FB7
:1024C000BD1F5A961C930E9359971AC08431C0F4BD
:1024D00090E00E97FA0102C0EE0FFF1F8A95E2F717
:1024E000CF01FE01EA0FFB1F818B2AA5282B2AA70B
:1024F000AA0FBB1FAC0FBD1F5A96FC92EE925997C4
:102500003F5F8885381708F4A7CFCDB7DEB7E8E07E
:1025100072C4A0E0B0E0EEE8F2E14DC4EC015B0172
:1025200049A5AAA58BA490E009C0E92FF0E0EE0F21
:10253000FF1FEA0DFB1D118210829F5F888598178F
:10254000A0F384B139A5832B84B987B12AA5822B46
:1025500087B98AB19BA5892B8AB985B1832B85B9A7
:1025600088B1822B88B98BB1892B8BB9EAE0F0E076
:102570006F9364E06A95F1F76F913197C9F784B171
:102580003095832384B987B12095822387B98AB196
:10259000909589238AB985B1382335B988B1282324
:1025A00028B98BB198239BB99090B000C090B1002E
:1025B0008091B00083608093B00082E08093B1008E
:1025C000D090B20060E070E03AC05091B2005D1966
:1025D000650F711DE3B0E41609F04FC0F6B0FA16AE
:1025E00009F04BC089B1881509F047C025C0A42F58
:1025F000B0E09D01220F331F8501020F131FF80168
:1026000080819181892BA1F42C0F3D1FF901818DCF
:10261000928DFC01208130E0AC0FBD1F51968C9152
:1026200090E028233923232B19F4F8017183608368
:102630004F5F88854817D8F2D50E4E2DAF2D8E8569
:102640009F856817790708F29092B000C092B10098
:1026500020E00FC0E22FF0E0EE0FFF1FEA0DFB1DA0
:1026600080819181892B21F48E859F859183808340
:102670002F5F8885281770F305C0E3B0F6B089B0E6
:1026800040E0D7CFCDB7DEB7ECE0B1C3A0E0B0E01B
:10269000EBE4F3E194C3EC018B01D0907C00E0907B
:1026A0007A00C7B0F8B080917A0086FDFCCF90E048
:1026B00009C0E92FF0E0EE0FFF1FE00FF11F1182BC
:1026C00010829F5F88859817A0F397B18A8D8095B7
:1026D000982397B998B1892388B987E880937A00BD
:1026E00050E024C0FE01E40FF11D818980937C003D
:1026F00080917A00806480937A0080917A0086FDD0
:10270000FCCFE42FF0E0EE0FFF1FE00FF11F209150
:1027100078003091790080819181820F931F91839D
:1027200080834F5F88854817E8F25F5F898D58176F
:1027300010F040E016C040E0F5CFE42FF0E0EE0FDF
:10274000FF1FE00FF11F698D862F90E0959587950B
:1027500020813181820F931F70E0C3D27183608327
:102760004F5F8885481748F3D0927C00E0927A004A
:10277000F8B8C7B8CDB7DEB7E8E03DC3A0E1B0E038
:10278000E3ECF3E11BC38C017B01D42E842F815039
:102790008230B0F4D8011C96ED91FC911D973097D2
:1027A00079F0808119969C911997892B80831A96CC
:1027B000ED91FC911B97808119969C91892B8083C8
:1027C000F8018089882339F5C02EB12EC801B701E0
:1027D000A0DED8011C96ED91FC911D97309781F0F9
:1027E000808119969C911997892B80831A96ED9177
:1027F000FC911B97908119968C91809589238083F9
:10280000B2E0DB1609F050C08C2D9B2DBE016F5F2E
:102810007F4F7FDE25C0C02EB12EC801B70136DF45
:10282000D8011C96ED91FC911D97309781F0808125
:1028300019969C911997892B80831A96ED91FC919A
:102840001B97908119968C91809589238083B2E0A3
:10285000DB1651F58C2D9B2DBE016F5F7F4F16DF70
:1028600040E0BE016F5F7F4F1AC0E42FF0E0EE0F33
:10287000FF1F6701CE0EDF1EE60FF71FD8011E9661
:102880002D913C911F9780819181281B390BF60176
:1028900080819181820F931F918380834F5FD80144
:1028A00018968C91481708F36096E9E0A3C2A0E05F
:1028B000B0E0ECE5F4E180C2EC01162F072F942E76
:1028C00022E0421711F0442351F48C819D81892B21
:1028D00009F4A1C08E819F81892B09F49CC0892DA8
:1028E0008150823050F488819981892B09F493C0FA
:1028F0008A819B81892B09F48EC0CE01612F702FB4
:10290000492D3CDF812F902F9C015901CC24DD24DF
:1029100000E010E07AC081E0981669F4EA81FB815A
:10292000E00FF11F20813181E881F981E00FF11F73
:10293000408151813DC0AC81BD81992059F4EE8127
:10294000FF81E00FF11F20813181A00FB11F4D9158
:102950005C912EC0A00FB11F8D919C91E881F981EF
:10296000E00FF11F20813181EE85FF8582179307EB
:1029700010F4AF0105C0A9014E0F5F1F481B590B92
:10298000EE81FF81E00FF11F60817181EA81FB819F
:10299000E00FF11F80819181EE85FF85681779072F
:1029A00010F49F0105C09C012E0F3F1F261B370B03
:1029B0007901E41AF50AF1F0F5016081718180E096
:1029C00090E09A0140E050E0621B730B840B950B82
:1029D00028EE33E040E050E059D1970140E050E06C
:1029E000C9D1C901F3E0293E3F0714F088EE93E016
:1029F00097FF02C080E090E0F501819391935F0121
:102A00000894C11CD11C0E5F1F4F888590E0C8162A
:102A1000D9060CF480CFCDB7DEB7EBE0E9C1CF9398
:102A2000DF93EC018A819B81009709F0BBD28E81F4
:102A30009F81009709F0B6D288819981009709F0AB
:102A4000B1D28C819D81009709F0ACD2DF91CF91FA
:102A50000895A3E6B0E0EEE2F5E1A7C17C015B01D9
:102A60006A01A2962FAFA297DA018D919C91892BD2
:102A700009F5F701808590E0880F991FD3D1D60121
:102A80008D939C93009709F4DDC020E030E00CC0EA
:102A9000C901880F991FD601ED91FC91E80FF91F2C
:102AA000118210822F5F3F4FF701808590E0281739
:102AB000390774F3D5018D919C91892B89F000E041
:102AC00010E03E010894611C711C41E4242E312C5D
:102AD0002C0E3D1E31E2432E512C4C0E5D1E27C0A4
:102AE000F701808590E0880F991F9CD1D5018D93C7
:102AF0009C93009709F4A6C020E030E011C0C90102
:102B0000880F991FD501ED91FC91E80FF91FD701AE
:102B10001E968D919C911F97918380832F5F3F4FCD
:102B2000F701808590E0281739074CF3C8CFC7011B
:102B3000B301A2964FADA29721DED70118968C91D2
:102B4000882E9924A101F301A4965FAE4EAEA497FE
:102B500060E070E034C00115110559F0A496AEADE7
:102B6000BFADA4972D913C918081918128173907A1
:102B700058F480819181A496AEADBFADA4978D939A
:102B80009C930115110541F0DA012D913C91808152
:102B900091818217930728F480819181DA018D93C6
:102BA0009C936F5F7F4F4E5F5F4F3296A4968EADC2
:102BB0009FADA4970296A4969FAF8EAFA497681579
:102BC00079054CF20F5F1F4F0A30110509F0AFCFA6
:102BD00040E050E020E030E08E010F5B1F4FBE016F
:102BE0006F5D7F4F28C0F801E20FF31F8080918056
:102BF000F601A081B181A20FB31F8D919C91119715
:102C00008815990510F48D929C92FB01E20FF31F39
:102C100080809180F501A081B181A20FB31F8D91B9
:102C20009C9111978816990610F48D929C924F5F93
:102C30005F4F2E5F3F4FD70118968C9190E0481759
:102C400059078CF2CD59DF4FE2E1CBC01F93CF93F0
:102C5000DF93EC01162F862F8150823038F4AE01BD
:102C60004E5F5F4FCE01BE0121E0F3DE123011F066
:102C7000112341F4AE014A5F5F4FCE012496BE019D
:102C800020E0E7DEDF91CF911F910895629FD00190
:102C9000739FF001829FE00DF11D649FE00DF11D17
:102CA000929FF00D839FF00D749FF00D659FF00DC6
:102CB0009927729FB00DE11DF91F639FB00DE11DB3
:102CC000F91FBD01CF0111240895991B79E004C0BB
:102CD000991F961708F0961B881F7A95C9F780955B
:102CE0000895AA1BBB1B51E107C0AA1FBB1FA61753
:102CF000B70710F0A61BB70B881F991F5A95A9F7A5
:102D000080959095BC01CD01089597FB092E07266B
:102D10000AD077FD04D0E5DF06D000201AF47095C4
:102D200061957F4F0895F6F7909581959F4F08958F
:102D3000A1E21A2EAA1BBB1BFD010DC0AA1FBB1FBF
:102D4000EE1FFF1FA217B307E407F50720F0A21B31
:102D5000B30BE40BF50B661F771F881F991F1A949E
:102D600069F760957095809590959B01AC01BD01C8
:102D7000CF01089597FB092E05260ED057FD04D0EC
:102D8000D7DF0AD0001C38F4509540953095219536
:102D90003F4F4F4F5F4F0895F6F790958095709590
:102DA00061957F4F8F4F9F4F08952F923F924F9283
:102DB0005F926F927F928F929F92AF92BF92CF92CB
:102DC000DF92EF92FF920F931F93CF93DF93CDB7D4
:102DD000DEB7CA1BDB0B0FB6F894DEBF0FBECDBF4C
:102DE00009942A88398848885F846E847D848C841D
:102DF0009B84AA84B984C884DF80EE80FD800C8126
:102E00001B81AA81B981CE0FD11D0FB6F894DEBF08
:102E10000FBECDBFED010895EE0FFF1F0590F49199
:102E2000E02D0994CF93DF93682F792F823091059D
:102E300010F462E070E0A091ED02B091EE02CA2FB2
:102E4000DB2FE0E0F0E040E050E026C0888199818F
:102E50008617970771F48A819B81309719F09383C5
:102E6000828304C09093EE028093ED02EC2FFD2F3D
:102E70003BC06817790740F44115510519F08417D4
:102E8000950710F4482F592FEC2FFD2F8A819B8135
:102E9000282F392FC22FD32F2097C1F64115510566
:102EA000E9F1842F952F861B970B049710F4642F5C
:102EB000752FE0E0F0E030C08D919C911197841760
:102EC000950711F56417750789F412968D919C91F9
:102ED0001397309719F09383828304C09093EE0286
:102EE0008093ED02EA2FFB2F329657C0842F952F47
:102EF000861B970BEA2FFB2FE80FF91F6193719345
:102F000002978D939C9349C0EA2FFB2F8281938176
:102F1000282F392FA22FB32F109771F68091EB0233
:102F20009091EC02892B41F48091A2029091A3022E
:102F30009093EC028093EB024091A4025091A50281
:102F40004115510541F44DB75EB78091A0029091B3
:102F5000A102481B590B2091EB023091EC0224177F
:102F60003507C8F4842F952F821B930B861797077C
:102F700090F0462F572F4E5F5F4F8417950758F0FC
:102F8000420F531F5093EC024093EB02E22FF32FBA
:102F90006193719302C0E0E0F0E08E2F9F2FDF91EC
:102FA000CF910895CF93DF93009709F456C0C82FAF
:102FB000D92F22971B821A82A091ED02B091EE02C6
:102FC000109711F140E050E0AC17BD0710F1BB8342
:102FD000AA83EC2FFD2F21913191E20FF31FAE1741
:102FE000BF0779F48D919C911197280F391F2E5F9F
:102FF0003F4F3983288312968D919C9113979B8321
:103000008A834115510581F4D093EE02C093ED02FD
:1030100024C012968D919C9113974A2F5B2F009795
:1030200019F0A82FB92FD0CFE42FF52FD383C28367
:1030300021913191E20FF31FCE17DF0771F48881E0
:103040009981280F391F2E5F3F4FE42FF52F3183D1
:1030500020838A819B8193838283DF91CF9108951E
:10306000A0E0B0E0E5E3F8E1A8CEC82FD92FA88012
:10307000B980CA80DB80A114B104C104D10441F439
:1030800084E2A82E89EDB82E8BE5C82E87E0D82ED5
:103090009D2D8C2D7B2D6A2D2DE133EF41E050E0ED
:1030A00069DE27EA31E440E050E0F0DDE62EF72E5D
:1030B000082F192F9D2D8C2D7B2D6A2D2DE133EF9F
:1030C00041E050E057DE952F842F732F622F2CEEB6
:1030D00034EF4FEF5FEFDADD6E0D7F1D801F911F24
:1030E00097FF04C0615070408040904868837983A6
:1030F0008A839B83262F372F3F77822F932FCDB73D
:10310000DEB7EAE076CEACCF86EA92E0A9CFA0E0C7
:10311000B0E08093A6029093A702A093A802B09378
:10312000A902089510E0C2E8D0E003C0FE0176DEF7
:0C3130002296C438D107D1F7F894FFCFE5
:10313C005072657373204220746F207374617274C3
:10314C002100423A2072657472792E00433A206550
:10315C006E7465722E004E4F524D004300000000FD
:10316C00006A005072657373204221000063616C29
:10317C006900726561647900440041000000000040
:10318C006602464F5257415244004C454654004C3F
:10319C004546543200524947485400524947485416
:1031AC0032005354524149474854000000000095E6
:1031BC000501040400D007F4010F0020202020207A
:1031CC002020200E0F101112000000000000000043
:1031DC0000010202030303030404040404040404B2
:1031EC000505050505050505050505050505050583
:1031FC000606060606060606060606060606060663
:10320C000606060606060606060606060606060652
:10321C000707070707070707070707070707070732
:10322C000707070707070707070707070707070722
:10323C000707070707070707070707070707070712
:10324C000707070707070707070707070707070702
:10325C0008080808080808080808080808080808E2
:10326C0008080808080808080808080808080808D2
:10327C0008080808080808080808080808080808C2
:10328C0008080808080808080808080808080808B2
:10329C0008080808080808080808080808080808A2
:1032AC000808080808080808080808080808080892
:1032BC000808080808080808080808080808080882
:1032CC000808080808080808080808080808080872
:0A32DC002000EF02000001000000D6
:00000001FF
