:1000000041C0000066C0000064C0000062C0000083
:1000100060C000005EC000005CC000005AC000006C
:1000200058C000000C94051154C0000052C00000DC
:1000300050C000000C94B20D4CC000004AC000003B
:1000400048C0000046C0000044C0000042C000009C
:1000500040C000003EC000003CC000003AC00000AC
:1000600038C0000036C00000250B2B0B2E0B310BC7
:10007000340B370B3A0B3D0B400B430B460B490B34
:1000800099119A1111241FBECFEFD8E0DEBFCDBF6A
:1000900012E0A0E0B1E0E6EAF1E302C005900D92C3
:1000A000AC3AB107D9F713E0ACEAB2E001C01D9257
:1000B000AF31B107E1F710E0C2E8D0E004C0229709
:1000C000FE010E944317C038D107C9F704D00C9431
:1000D000C71896CFFFCFA5E6B1E0E1E7F0E00C94BA
:1000E000101723E1E22EF12CEC0EFD1EC701D8D132
:1000F000CE010196B70128D68E01065C1F4FC801BC
:10010000B70137D3C70108D1C70160E071E006D15C
:10011000D02E012F8D2D902F9BD20CC0C701FCD06B
:10012000C70162E171E04CE151E0FBD0C7016AE038
:1001300070E0EBD0C70160E3DAD0882379F3C70120
:1001400060E1D5D0882331F7C701B2D0FC018081AE
:1001500091810E94BC1893E1C92ED12CCC0EDD1EDA
:100160004E010894811C911C8AE3A82EB12CAC0E80
:10017000BD1EC601C8D07B018C01C601CDD0C60111
:1001800066E271E0CBD0C60114D1C401B801A70169
:10019000ECD4C501B801A701B9D1C501B1D18C0119
:1001A0008FEF0F3F180729F3C80181729070819774
:1001B00001F70532110529F4C6016BE271E094D014
:1001C0000FC00B321105A9F20132110519F402E03A
:1001D00010E015C00332110519F400E010E00FC063
:1001E0000532110519F401E010E009C007321105CC
:1001F00021F00932110509F0BCCF0FEF1FEF0E946B
:10020000B91863E070E00E94BA1680179107B9F33D
:10021000B0CFFC0181E391E091838083738362839B
:100220000895FC0181E391E091838083738362836D
:100230000895FC01828193810895FC01CB018150D6
:100240009F4F8F5F914010F4728361830895FC018A
:10025000CB0181509F4F8F5F914010F47483638373
:100260000895FC01CB0181509F4F8F5F914010F4A6
:1002700072836183CA0181509F4F8F5F914010F458
:10028000548343830895FC01818192810895FC0188
:10029000838194810895FC0181819281238134813D
:1002A000820F931F62E070E00E94BA16CB0108959E
:1002B0009C01295F3F4FC90108959C012F5E3F4F6C
:1002C000C90108959C01255E3F4FC9010895FC01B5
:1002D00076A365A30895FC0185A196A108959C01CC
:1002E0002B5F3F4FC9010895CB010C94A70D862FBA
:1002F0000C947C10862F0C94FE10862F0C94971073
:10030000862F0C94C8100C946F11CB010C943F11E4
:10031000862F642F0C94EA0E0C94080FCB010C94DA
:10032000AE0F0F931F93CB018A010E94AE0F80E0A6
:1003300061E00E94EA0EC8010E94AE0F1F910F916A
:100340000895CB01BA010C94940F0F931F93CF9390
:10035000DF938C010E94080FC80163E371E04CE356
:1003600051E0DFDFCCEEDFEFC832D10528F08EE1BF
:1003700090E062EE7FEF04C082EE9FEF6EE170E0EE
:100380000E947310C80161E00E94A01184E190E016
:100390000E943F112196CC33D10531F780E090E0E7
:1003A00060E070E00E947310DF91CF911F910F9178
:1003B0000895CF93DF93EC016B817C8189819A81D1
:1003C0000E947310CE01079661E00E94A311BE0146
:1003D000655E7F4FCE0141E00E949D11FE0120E04D
:1003E00030E062E070E041E050E0838D948D8A3F20
:1003F000910518F4128A118A08C08855924018F4A1
:10040000528B418B02C0728B618B2F5F3F4F3296B4
:100410002530310551F787E00E940E0A40E02DA1FA
:100420003EA18217930708F441E04D8386E0F6D79A
:1004300040E02DA13EA18217930708F441E04E83CE
:10044000DF91CF910895BF92CF92DF92EF92FF920A
:100450000F931F938C017B016A01B22E0E94080F3B
:10046000C801B701A6015DDFF80112821182148272
:100470001382C8019EDF8B2D0E94C8101F910F911F
:10048000FF90EF90DF90CF90BF90089545E451E04A
:1004900020E1D9CF6EE471E045E451E020E1D3CF13
:1004A0000F931F938C0180ED97E060E00E94A911EB
:1004B0000E94831182EC91E0F80196A385A3C80104
:1004C00063E371E0E3DFC80140DF1F910F910895FE
:1004D0000F931F938C0180ED97E060E00E94A911BB
:1004E0000E94831182EC91E0F80196A385A3C801D4
:1004F00063E371E0CBDFC80128DF1F910F910895FE
:10050000FC01EA5DFE4F808191810895A0E0B0E09A
:10051000ECE8F2E00C940A17EC015A016B018C81B3
:100520009D81AE81BF8126E2822E21E0922E8C0E2B
:100530009D1E481759076A077B0708F47FC0E884A7
:10054000F9840A851B85CE0174DEA5DE25E430E042
:10055000A901849F9001859F300D949F300D112437
:10056000442737FD4095542FC801B7010E94CD168E
:100570002A0D3B1D4C1D5D1D2C833D834E835F83E7
:100580009CE0A92EB12CAC0EBD1EC50165E470E047
:10059000A7D17B018C01CE014CDE94DEFC014481AD
:1005A000558160E070E04E0D5F1D601F711FC50139
:1005B00078D1F40111821082C0E0D0E0CC24DD2497
:1005C000240181E0282E312C3E010894611C711C0D
:1005D000B601675F7F4FC50183D17B018C01C501E7
:1005E000B6017ED1E61AF70A080B190BC801B7014C
:1005F00029E030E040E050E00E94CD16F2E02D3BD3
:100600003F0794F42C52314021593140B8F4C101D4
:1006100002C0880F991FCA95E2F7F201208131814B
:10062000822B932B918380834AE050E0C40ED51E29
:1006300056E06516710439F0E301C6CF8FEF9FEFE6
:10064000F40191838083CDB7DEB7E2E10C942617E5
:100650004F925F927F928F929F92AF92BF92CF9272
:10066000DF92EF92FF920F931F93CF93DF93EC01F2
:10067000882E7D2EDEDD62E370E042E350E0F1DDA6
:10068000CE01D7DD96DECE01D4DD1CDE2C01EE24BA
:10069000FF2400E010E0AA24BB2465019924C801CE
:1006A000880F991F080F191FF20184819581080F87
:1006B000191F1695079516950795882D972DB9DD65
:1006C00078DE992061F4F1E0053F1F07BCF08FE46C
:1006D00091E00E94A70D0E946F115B016C0181E007
:1006E000043F18074CF481E591E00E94A70D0E9499
:1006F0006F117B018C0111C09924939481E090E0EB
:100700000E943F110894E11CF11CE8EBEE16EBE0AF
:10071000FE0629F6EE24FF248701882D972D89DD1A
:1007200060E070E040E050E09CDD882D972D81DD99
:1007300040DEEA18FB080C091D09C801B70122E3D5
:1007400030E040E050E00E947B16688779878A8716
:100750009B87DF91CF911F910F91FF90EF90DF90DA
:10076000CF90BF90AF909F908F907F905F904F9071
:100770000895AAE1B1E0EFEBF3E00C9414176C01DB
:1007800048DD87E591E0F601918380835CE0E52E0A
:10079000F12CEC0CFD1CC70170D0F60114821582FF
:1007A0001682178210861186128613868E010F5FBD
:1007B0001F4FC80162D0D701F8018AE191E0019092
:1007C0000D920197E1F788E291E0C80ED91E82E30D
:1007D00090E0F60191838083C65EDE4FE8E00C94E2
:1007E0003017AAE1B1E0E7EFF3E00C9414176C01C5
:1007F00010DD87E591E0F601918380836CE0E62EC1
:10080000F12CEC0CFD1CC70138D0F60114821582C6
:100810001682178210861186128613868E010F5F4C
:100820001F4FC8012AD0D701F8018AE191E0019059
:100830000D920197E1F788E291E0C80ED91E82E39C
:1008400090E0F60191838083C65EDE4FE8E00C9471
:100850003017DC0180E090E0FD01E80FF91F108205
:10086000118212821382049621E088319207A1F747
:10087000A85EBE4F1D921C920895DC0180E090E0BE
:10088000FD01E80FF91F1082118212821382049673
:1008900021E088319207A1F7A85EBE4F1D921C92FD
:1008A00008950F931F939C018C01085E1E4FF80161
:1008B00080819181FC01EE0FFF1FEE0FFF1FE20F01
:1008C000F31F4083518362837383019666E470E073
:1008D0000E94BA16F801918380831F910F910895A9
:1008E000FC01CB01E85EFE4F20813181E851F140EF
:1008F000820F931F66E470E00E94BA16880F991F5A
:10090000880F991FE80FF91F60817181828193819F
:100910000895FC0175836483578346830895FC0121
:1009200015861486738762870895FC0140E024854C
:10093000358582859385821793070CF441E0842FD7
:100940000895A0E0B0E0E7EAF4E00C941217EC019F
:1009500070DCB3DC5C0188859985009709F07AC06A
:10096000CE0167DC69E571E0D9DCF5018481958110
:10097000029739F4CE015DDC6C817D814E815F810F
:100980004CC0F501828193810297F1F4CE0151DCD4
:100990006C016C817D81882777FD8095982FF3D23B
:1009A00021EE3AE744E55FE3F7D149D37B018C01BF
:1009B0006E817F81882777FD8095982FE4D221EE84
:1009C0003AE744E95FE322C0F50186819781029707
:1009D00029F5CE012EDC6C016C817D81882777FDA5
:1009E0008095982FD0D221EE3AE744E95FE3D4D145
:1009F00026D37B018C016E817F81882777FD8095CE
:100A0000982FC1D221EE3AE744E55FE3C5D117D371
:100A10009B01AC01C601B701A90123DCF50180816E
:100A20009181029709F09CC08C859D852A853B8524
:100A3000009751F4232B19F483E090E002C085E085
:100A400090E0998788878CC028173907C1F381E027
:100A500090E0F7CF81309105A9F4CE01EADB61E6A1
:100A600071E05CDCCE01E5DB6C817D814E815F81D4
:100A7000F8DBF50184819581892B09F071C082E052
:100A800090E0DFCF82309105A9F4CE01D2DB66E69B
:100A900071E044DCCE01CDDB9C018C819D8162E064
:100AA00070E00E94BA16709561957F4F4E815F810C
:100AB000C90131C083309105A9F4CE01BADB6CE6DF
:100AC00071E02CDCCE01B5DB6C817D814E815F81D4
:100AD000C8DBF50184819581892B09F041C084E050
:100AE00090E0AFCF84309105E9F4CE01A2DB62E75C
:100AF00071E014DCCE019DDB9C01EC81FD818E81D7
:100B00009F8162E070E00E94BA16AB01509541955A
:100B10005F4FC901BF01A5DBF50184819581029773
:100B2000F9F417C00597E1F4CE0183DB69E771E0C2
:100B3000F5DBCE017EDB6C817D814E815F8191DBB7
:100B4000F50180819181892B59F480859185892BCC
:100B500039F4198618868C859D8501969D878C872A
:100B6000CDB7DEB7EAE00C942E17A0E0B0E0EBEBD7
:100B7000F5E00C941217EC015CDB9FDB5C01CE010D
:100B800058DBCADB88859985009709F071C0CE01D2
:100B900050DB69E571E0C2DBF50184819581029744
:100BA00039F4CE0146DB6C817D814E815F814CC082
:100BB000F501828193810297F1F4CE013ADB6C0159
:100BC0006C817D81882777FD8095982FDCD121EE7F
:100BD0003AE744E55FE3E0D032D27B018C016E81DD
:100BE0007F81882777FD8095982FCDD121EE3AE738
:100BF00044E95FE322C0F50186819781029729F5D8
:100C0000CE0117DB6C016C817D81882777FD809593
:100C1000982FB9D121EE3AE744E95FE3BDD00FD276
:100C20007B018C016E817F81882777FD8095982FCD
:100C3000AAD121EE3AE744E55FE3AED000D29B01B2
:100C4000AC01C601B701A9010CDBF50180819181DE
:100C5000029719F481E090E008C0F5018085918544
:100C6000029709F06CC083E090E09987888767C09D
:100C700081309105A9F4CE01DCDA61E671E04EDB4A
:100C8000CE01D7DA6C817D814E815F81EADAF50190
:100C900084819581892B09F052C082E090E0E5CFF4
:100CA00082309105A9F4CE01C4DA66E671E036DB44
:100CB000CE01BFDA9C018C819D8162E070E00E94D0
:100CC000BA16709561957F4F4E815F81C9012FC023
:100CD00083309105A1F4CE01ACDA6CE671E01EDB45
:100CE000CE01A7DA6C817D814E815F81BADAF50190
:100CF00084819581892B19F584E090E0B6CF049723
:100D0000F1F4CE0196DA62E771E008DBCE0191DA08
:100D10009C01EC81FD818E819F8162E070E00E94E8
:100D2000BA16AB01509541955F4FC901BF0199DAE1
:100D3000F50184819581029711F419861886CDB743
:100D4000DEB7EAE00C942E170F931F938C0161DA43
:100D500086E891E0F80191838083118610868CE308
:100D600090E095838483978386831F910F910895E4
:100D70000F931F938C014DDA86E891E0F80191837F
:100D80008083118610868CE390E09583848397831B
:100D900086831F910F910895A0E2B0E0E2EDF6E0A6
:100DA0000C940A1769837A838B839C832D833E83FB
:100DB0004F835887CE010196BE01675F7F4FB6D241
:100DC000CE010596BE016F5E7F4FB0D299859230FD
:100DD00088F089898230C8F0943019F4823051F457
:100DE00004C0843029F4923081F489E991E0C6C0CE
:100DF000923049F420E09A858A89981321E02A8765
:100E0000CE010996BBC0823049F420E09A858A89D8
:100E1000981321E02A8BCE014196B0C02D843E84E8
:100E20004F8458886D887E888F88988CEE24FF24A4
:100E30008701AA24BB24650140E050E060E070E037
:100E4000E0E0F0E0C10181709070892BE9F0E60CE0
:100E5000F71C081D191D9A01AB012A0D3B1D4C1DE5
:100E60005D1D80E090E0A0E0B0E0E614F704080526
:100E7000190520F481E090E0A0E0B0E0BA01A901FA
:100E8000480F591F6A1F7B1FAA0CBB1CCC1CDD1C02
:100E900097FE08C081E090E0A0E0B0E0A82AB92A5F
:100EA000CA2ADB2A3196E032F10549F0660C771C3C
:100EB000881C991C5694479437942794C3CFFA857D
:100EC000EA892B893C898B859C85280F391F2E5FE9
:100ED0003F4F17C0CA0181709070892B61F0169541
:100EE0000795F794E79480E090E0A0E0B0E8E82A66
:100EF000F92A0A2B1B2B76956795579547952F5FF7
:100F00003F4F77FDE7CF0CC0440F551F661F771F7B
:100F100017FD4160EE0CFF1C001F111F21503040D7
:100F2000403090E0590790E0690790E4790760F35A
:100F30002B8F3C8FDB01CA018F779070A070B0704F
:100F400080349105A105B10561F447FD0AC0E114A3
:100F5000F1040105110529F0405C5F4F6F4F7F4F91
:100F600040781A8EFE1711F081E08A8F4D8F5E8FC8
:100F70006F8F78A383E0898FCE01499602D1A09626
:100F8000E2E10C942617A8E0B0E0E9ECF7E00C945D
:100F900013179B01AC0183E08983DA01C90188271B
:100FA000B7FD83959927AA27BB27B82E21153105B0
:100FB0004105510519F482E0898339C08823A9F0DD
:100FC000203080E0380780E0480780E8580729F49F
:100FD00060E070E080E09FEC2EC0EE24FF248701EB
:100FE000E21AF30A040B150B02C079018A018EE1A3
:100FF000C82ED12CDC82CB82ED82FE820F83188733
:10100000C801B7016FD001971816190684F4082E8D
:1010100004C0EE0CFF1C001F111F0A94D2F7ED82D2
:10102000FE820F831887C81AD90ADC82CB82BA8263
:10103000CE010196A6D02896E9E00C942F17ACE0DB
:10104000B0E0E5E2F8E00C941A1769837A838B83A9
:101050009C83CE010196BE016B5F7F4F67D18D816E
:10106000823061F1823050F1843021F48E81882306
:1010700051F12EC02F81388537FD20C06E812F3170
:1010800031051CF06623F9F023C08EE190E0821B4D
:10109000930B29853A854B855C8504C05695479509
:1010A000379527958A95D2F76623B1F050954095EC
:1010B000309521953F4F4F4F5F4F0EC020E030E0FD
:1010C00040E050E009C02FEF3FEF4FEF5FE704C073
:1010D00020E030E040E050E8B901CA012C96E2E09F
:1010E0000C943617EF92FF920F931F937B018C01A4
:1010F00080E0E81680E0F80681E0080780E0180745
:1011000088F48FEFE816F1040105110531F028F09D
:1011100088E090E0A0E0B0E017C080E090E0A0E0C0
:10112000B0E012C080E0E81680E0F80680E0080732
:1011300081E0180728F088E190E0A0E0B0E004C06A
:1011400080E190E0A0E0B0E020E230E040E050E05C
:10115000281B390B4A0B5B0B04C016950795F794B7
:10116000E7948A95D2F7F701EF55FE4F8081281B4F
:10117000310941095109C9011F910F91FF90EF9069
:101180000895DF92EF92FF920F931F93FC01E4808A
:10119000F58006811781D1808081823048F480E01B
:1011A00090E0A0E1B0E0E82AF92A0A2B1B2BA5C0A9
:1011B000843009F49FC0823021F4EE24FF2487019B
:1011C00005C0E114F1040105110519F4E0E0F0E0B7
:1011D00096C0628173819FEF623879070CF05BC023
:1011E00022E83FEF261B370B2A3131052CF020E097
:1011F00030E040E050E02AC0B801A701022E04C050
:1012000076956795579547950A94D2F781E090E0D7
:10121000A0E0B0E004C0880F991FAA1FBB1F2A9549
:10122000D2F70197A109B1098E219F21A023B123F3
:101230000097A105B10521F081E090E0A0E0B0E0C9
:101240009A01AB01282B392B4A2B5B2BDA01C90100
:101250008F779070A070B07080349105A105B105B2
:1012600039F427FF09C0205C3F4F4F4F5F4F04C048
:10127000215C3F4F4F4F5F4FE0E0F0E02030A0E0B7
:101280003A07A0E04A07A0E45A0710F0E1E0F0E0D6
:1012900079018A0127C06038710564F5FB01E158C6
:1012A000FF4FD801C7018F779070A070B070803465
:1012B0009105A105B10539F4E7FE0DC080E490E089
:1012C000A0E0B0E004C08FE390E0A0E0B0E0E80E62
:1012D000F91E0A1F1B1F17FF05C016950795F794E7
:1012E000E794319687E016950795F794E7948A95E9
:1012F000D1F705C0EE24FF248701EFEFF0E06E2F59
:10130000679566276795902F9F77D794DD24D794AC
:101310008E2F8695492F462B582F5D29B701CA017C
:101320001F910F91FF90EF90DF900895FC01DB017A
:10133000408151812281622F6F7770E0221F222726
:10134000221F9381892F880F822B282F30E0991F2D
:101350009927991F11969C93119721153105A9F58D
:10136000411551056105710511F482E037C082E82D
:101370009FEF13969C938E9312979A01AB0167E0AF
:10138000220F331F441F551F6A95D1F783E08C93BA
:101390000DC0220F331F441F551F12968D919C9133
:1013A0001397019713969C938E931297203080E0A9
:1013B000380780E0480780E4580758F314962D93C7
:1013C0003D934D935C93179708952F3F310579F422
:1013D000411551056105710519F484E08C93089558
:1013E00064FF03C081E08C9312C01C9210C02F5781
:1013F000304013963C932E93129783E08C9387E0B2
:10140000440F551F661F771F8A95D1F77064149695
:101410004D935D936D937C9317970895982F803229
:1014200078F487E880937A0080917C0080648076ED
:10143000892B80937C0080917A00806480937A006D
:1014400080917A0086FDFCCF80917C0085FF05C0ED
:1014500080917900282F30E004C0209178003091ED
:101460007900C9010895A0E0B0E0E9E3FAE00C9446
:101470001217FC015B01C42E8091C9028823C9F4B4
:1014800081E08093C90210926F0083E28093800014
:1014900081E1809381001092820080E197E2909335
:1014A00089008093880010928B0010928A00229A03
:1014B000789410929301F7FD03C0DD24D39403C008
:1014C000FF772AE0D22E80918100082F10E0087F5C
:1014D000107088ECD89EC00111248E179F07C0F4AD
:1014E000EF0187E2E131F80710F0C0E1D7E2BE0179
:1014F0007695679580E090E06058794687469F4FE3
:101500009E0140E050E00E94CD167901016024C0A8
:1015100088E2D89E802D1124C82FD0E0CE17DF0797
:1015200008F4EF01BE01769567959E0140E050E01A
:101530008AE0D81639F480E090E0605E734481441C
:101540009F4F06C080E090E060537D4E8C4E9F4FD1
:101550000E94CD16790102608AE0D81639F4CE01D6
:1015600005966AE070E00E94A616EB0183E0C83E93
:10157000D80711F4B5010FC0BE0180E090E09501DD
:1015800040E050E00E947B1628EE33E040E050E05F
:101590000E94EF16B90110926F0000938100F09243
:1015A0008900E0928800E0918800F0918900AC2DDC
:1015B000A03108F0AFE080E190E08A1B910902C001
:1015C000F695E7958A95E2F7F0938B00E0938A0011
:1015D0007093B1026093B00286B38FEF86BB81E057
:1015E00080936F00CDB7DEB7EAE00C942E17CF934F
:1015F000DF93EB018F3F11F0442329F488EE93E051
:10160000BE0140E067C0813110F420E005C0282F02
:101610002051203608F02FE5822F6CE00E949A16A8
:10162000382F682F70E084EF9FEF689FF001699F6B
:10163000F00D789FF00D1124E20FF11DEC30F10553
:1016400038F4EC5CFF4F0C9441178CE991E023C017
:1016500080E090E020C085EB91E01DC08FEC91E030
:101660001AC08AEE91E017C087E092E014C086E2CB
:1016700092E011C087E492E00EC089E692E00BC0D0
:101680008EE892E008C085EB92E005C08EED92E016
:1016900002C08AE093E0373071F002C0880F991FD2
:1016A0006A95E2F7323020F005966AE070E00BC0F0
:1016B000805090480BC036E0880F991F3A95E1F7AB
:1016C000029665E070E00E94A616CB01403108F05A
:1016D0004FE0BE01C8DEDF91CF9108953091AE0298
:1016E000E091CA02F091CB02332311F0249101C0A2
:1016F0002081822F81548A3108F4205E203259F4EF
:101700008091CA029091CB0201969093CB02809374
:10171000CA02019729F7822F0895CF93DF93DEDF66
:10172000282FC0E0D0E01CC0CE0153E0880F991FE5
:101730005A95E1F7CC0FDD1FC80FD91F822F9927CB
:1017400087FD9095C80FD91FE0978091CA029091AC
:10175000CB0201969093CB028093CA02BFDF282F61
:10176000822F80538A3000F3CE01DF91CF9108950C
:10177000A0E0B0E0EEEBFBE00C9410178090880145
:10178000B090AC02BB2021F06091AD02662399F4C9
:10179000A090AD0200918D0110918E01E090890121
:1017A000F0908A01C0918B01D0918C01C0908F0183
:1017B000D090900103C18FEF70E040E018DF1092ED
:1017C000AD02C0C194E0892EBB2404EF11E084E097
:1017D000E82EF12CC0EDD7E0B4E09B2EAFE0CA2E8E
:1017E000D12C7CDF282F8091CA029091CB020196E8
:1017F0009093CB028093CA02263609F498C027360C
:10180000CCF42236A1F1233674F42E3361F12F3358
:1018100034F42132B9F22C3309F006C126C0213646
:1018200009F002C11CC1243609F451C025360CF060
:1018300066C035C02F3609F4BFC0203754F42C36AB
:1018400009F4A5C02D3609F4A5C0273609F0ECC06F
:1018500086C0243709F4CEC0263709F4E2C0223707
:1018600009F0E2C0ADC08394BCCF8A94BACFA092F5
:10187000AD02B092AC0210938E0100938D01F092F4
:101880008A01E0928901D0938C01C0938B019092E0
:101890008801D0929001C0928F012BE0F7C0A092F6
:1018A000AD02B092AC0210938E0100938D01F092C4
:1018B0008A01E0928901D0938C01C0938B019092B0
:1018C0008801D0929001C0928F0120E0DFC0A092E9
:1018D000AD02B092AC0210938E0100938D01F09294
:1018E0008A01E0928901D0938C01C0938B01909280
:1018F0008801D0929001C0928F0122E0C7C0A092CF
:10190000AD02B092AC0210938E0100938D01F09263
:101910008A01E0928901D0938C01C0938B0190924F
:101920008801D0929001C0928F0124E0AFC0A092B4
:10193000AD02B092AC0210938E0100938D01F09233
:101940008A01E0928901D0938C01C0938B0190921F
:101950008801D0929001C0928F0125E097C0A0929B
:10196000AD02B092AC0210938E0100938D01F09203
:101970008A01E0928901D0938C01C0938B019092EF
:101980008801D0929001C0928F0127E07FC0C5DE10
:101990007C0141C0A3DE8C3611F4BB2403C0AA2411
:1019A000BB24B3948091CA029091CB02019690938C
:1019B000CB028093CA0215CFB0DE882E982C11CFAF
:1019C000A092AD02B092AC0210938E0100938D01F3
:1019D000F0928A01E0928901D0938C01C0938B012F
:1019E00090928801D0929001C0928F0120E0FF2454
:1019F000F3944DC092DEBC0180EC9DE50E94A616DA
:101A0000CB01EB01F3E0CC0FDD1FFA95E1F7880F76
:101A1000991FC80FD91FCE01B7010E94A6168B01CE
:101A2000E0CE7BDE6C01DDCEA092AD02B092AC02C6
:101A300010938E0100938D01F0928A01E09289014A
:101A4000D0938C01C0938B0190928801D092900129
:101A5000C0928F011092CB021092CA0273C0A09262
:101A6000AD02B092AC0210938E0100938D01F09202
:101A70008A01E0928901D0938C01C0938B019092EE
:101A80008801D0929001C0928F0129E0FF248CE060
:101A9000889EC0011124E22EE80E0AC08091CA027D
:101AA0009091CB0201969093CB028093CA02E3946B
:101AB00015DE8B3299F3833289F30BC08091CA0211
:101AC0009091CB0201969093CB028093CA02EA9444
:101AD00005DE8D3299F3C0918D01D0918E01815335
:101AE000883050F400918B0110918C0116DEBC01FE
:101AF000C8010E94A616EB018E010BC08091CA029C
:101B00009091CB0201969093CB028093CA02C00FB2
:101B1000D11F16950795E2DD8E3281F38091AC02DC
:101B2000882339F0CE01969587958093AD02C81B26
:101B3000D109FF2011F0EE24EA948E2DBE014091D0
:101B40008F0155DDCDB7DEB7ECE00C942C17109269
:101B50006F009093CB028093CA021092AE02109253
:101B6000AD0206CE1F920F920FB60F9211242F9343
:101B70003F934F935F936F937F938F939F93AF9315
:101B8000BF93EF93FF938091B0029091B1020197C0
:101B90009093B1028093B002019609F510926F0004
:101BA000789480918100887F81608093810080E1BA
:101BB00097E2909389008093880010928B00109296
:101BC0008A0081E0809393018091CA029091CB02B8
:101BD000892B29F08091AF02882309F4C9DDFF9198
:101BE000EF91BF91AF919F918F917F916F915F9195
:101BF0004F913F912F910F900FBE0F901F9018950E
:101C0000EF92FF920F931F936AB157985A98289AB0
:101C1000E090B602F090B7020091B8021091B902BC
:101C200020E030E041E050E0CA016F9364E06A9543
:101C3000F1F76F910197C9F75C9ACA016F9364E05D
:101C40006A95F1F76F910197C9F789B15C98FA012C
:101C50006F9364E06A95F1F76F913197C9F75C9AD9
:101C6000FA016F9364E06A95F1F76F913197C9F7C4
:101C70005C9887FF0BC02C5F3F4FC901A0E0B0E02C
:101C80008E159F05A007B10708F4CECF6AB91F9142
:101C90000F91FF90EF90089565B190E0AC01417015
:101CA0005070440F551F9C012670307053E0220F76
:101CB000331F5A95E1F7422B6D7C462B45B92BB16A
:101CC0008870907034E0880F991F3A95E1F72F776C
:101CD000282B2BB95C9A81E090E0FC016F9364E0C3
:101CE0006A95F1F76F913197C9F75C986F9364E04B
:101CF0006A95F1F76F910197C9F7089580E197E22E
:101D0000A0E0B0E08093B6029093B702A093B8022F
:101D1000B093B902529A209A549A8EE190E0AFD2D1
:101D200083E028D186E090E0AAD283E023D182E04C
:101D300090E0A5D283E01ED182E090E0A0D282E0C4
:101D400019D182E090E09BD288E241D088E03FD078
:101D500081E03DD086E03BD08CE039C08091BA0272
:101D6000882321F481E08093BA02C8CF0895BF92FE
:101D7000CF92DF92EF92FF920F931F93082F162FAF
:101D8000F42EECDF3DDFB4B0C5B0DAB0EBB028988C
:101D9000112311F05A9A01C05A9884B1826384B910
:101DA000579A81E0F81621F0802F82958F7074DFAA
:101DB000802F8F7071DFDAB8EBB8B4B8C5B81F9157
:101DC0000F91FF90EF90DF90CF90BF90089560E06B
:101DD00042E0CDCFA4E0B0E0E0EFFEE00C941817B5
:101DE000182F062F80E8898380EC8A8384E98B830F
:101DF00084ED8C83FE01E60FF11D8181810FE7DF09
:101E00001093B5020093B4022496E4E00C943417C6
:101E100081E0DDDF8091B2029091B302892B19F14C
:101E200060E070E208C0E091B202F091B302E40F0A
:101E3000F51F70836F5F462F50E08091910190E015
:101E400001972091920130E0FC01E29FC001E39FE5
:101E5000900DF29F900D11244817590724F310920A
:101E6000B5021092B402089561E042E080CF6F9213
:101E70007F928F929F92AF92BF92CF92DF92FF920A
:101E80000F93DF93CF93CDB7DEB72A970FB6F894B1
:101E9000DEBF0FBECDBF5B016C010AE03E010894BE
:101EA000611C711CFA2CC601B5012AE030E040E04B
:101EB00050E073D7C901DA015C016D0101504301A3
:101EC000800E911C80E3F80EC601B5012AE030E0D7
:101ED00040E050E010D7F61AF401F082A114B104EA
:101EE000C104D104F9F607C0F601E00FF11D8081AD
:101EF000BBDF0F5F04C06E010894C11CD11C0A3007
:101F000098F32A960FB6F894DEBF0FBECDBFCF91DF
:101F1000DF910F91FF90DF90CF90BF90AF909F9097
:101F20008F907F906F900895EF92FF920F931F9381
:101F30007B018C0197FF0AC010950095F094E09406
:101F4000E11CF11C011D111D8DE28EDFC801B701DE
:101F50008EDF1F910F91FF90EF900895CF93DF9345
:101F6000EC0102C0219680DF88818823D9F7DF91B8
:101F7000CF91089560E041E0FACE282F883068F4D0
:101F800081E090E002C0880F991F2A95E2F7282F80
:101F9000AAE2B0E0EBE2F0E029C08E3080F430E05D
:101FA0002850304081E090E002C0880F991F2A95A8
:101FB000E2F7282FA4E2B0E0E5E2F0E017C08531B7
:101FC00030F020E0A0E0B0E0E0E0F0E00FC030E072
:101FD0002E50304081E090E002C0880F991F2A9572
:101FE000E2F7282FA7E2B0E0E8E2F0E06F3F19F453
:101FF0008081822709C0662319F08081822B04C06A
:102000009081822F8095892380838C91822B8C9361
:102010000895E0EBF0E083EF8083808184BDE1EB05
:10202000F0E082E08083808185BDE4EBF0E0108207
:102030008081E3EBF0E08083808188BD88B587BD37
:1020400086E060E09ADF85E060E097DF8BE060E0AB
:1020500094DF83E060E091CF8091BB02882321F47C
:1020600081E08093BB02D5CF0895CF93DF93EC013D
:10207000F3DFD7FD02C020E004C0D095C195DF4F4B
:1020800021E0CE01CF3FD10519F014F08FEF90E0A1
:10209000222319F018BC87BD02C088BD17BCDF9190
:1020A000CF910895CF93DF93EC01D6DFD7FD02C027
:1020B00020E004C0D095C195DF4F21E0CE01CF3F95
:1020C000D10519F014F08FEF90E0222329F010923F
:1020D000B4008093B30004C08093B4001092B300A6
:1020E000DF91CF9108950F931F938B01BEDFC8013D
:1020F000D9DF1F910F910895282F8091BC0288236A
:1021000091F481E08093BC0284B18D7C84B985B167
:10211000826385B985E090E06F9364E06A95F1F79A
:102120006F910197C9F783B18095822308951F931A
:10213000CF93DF93182F8091BC02882391F481E024
:102140008093BC0284B18D7C84B985B1826385B9EA
:1021500085E090E06F9364E06A95F1F76F910197E5
:10216000C9F7C12FD0E083B190E08C239D23892B48
:10217000D1F38AE090E083D083B190E08C239D235B
:10218000892B89F383B18123DF91CF911F9108952A
:102190001F93CF93DF93182F8091BC02882391F473
:1021A00081E08093BC0284B18D7C84B985B1826367
:1021B00085B985E090E06F9364E06A95F1F76F91DF
:1021C0000197C9F7C12FD0E083B190E08095909539
:1021D0008C239D23892BC1F38AE090E050D083B1FA
:1021E00090E0809590958C239D23892B69F383B192
:1021F00080958123DF91CF911F9108951F93C8DFB0
:10220000182F95DF812F1F9108952F928F939F9301
:102210002FB68091CD029091CE0201968093CD028F
:102220009093CE0290E08091CF02891F8093CF02DD
:102230009091D5029C5F9093D5028091D4028051F9
:102240009742C0F09093D5028093D4028091D0023F
:102250009091D10201968093D0029093D10290E0A8
:102260008091D202891F8093D2028091D302891F6C
:102270008093D3022FBE9F918F912F90189528EEB7
:1022800033E009C0F9016F9364E06A95F1F76F914B
:102290003197C9F701970097A9F70895A0E7B0E033
:1022A0008C918E7F8C93E0EBF0E080818360808363
:1022B000E1EBF0E08081807F808380818260808399
:1022C000B89A8C9181608C93789408958091D6020D
:1022D000882321F481E08093D602E0CF0895F6DFD1
:1022E000E0E7F0E080818E7F80832091D002309102
:1022F000D1024091D2025091D302808181608083CB
:10230000B901CA010895E2DFE0E7F0E080818E7F45
:1023100080831092D0021092D1021092D2021092B9
:10232000D3021092D5021092D40280818160808302
:102330000895089587ED92E0A7C387ED92E0ECC27F
:1023400087ED92E0B8C49C01462F87ED92E0B90179
:102350004AC20F93DF93CF9300D000D00F92CDB736
:10236000DEB79C01962FDE011196E4E9F1E085E0ED
:1023700001900D928150E1F7BE016F5F7F4F99236D
:1023800029F087ED92E045E00FEF04C087ED92E081
:1023900045E003E172D087ED92E057D0B4DF0F90B3
:1023A0000F900F900F900F90CF91DF910F910895A4
:1023B000FC0111821082138212821582148217820C
:1023C0001682613118F080E1808701C06087208B20
:1023D000483060F481E090E002C0880F991F4A9570
:1023E000E2F74AE250E02BE230E029C04E3080F4C0
:1023F000242F30E02850304081E090E002C0880F68
:10240000991F2A95E2F744E250E025E230E017C038
:10241000453130F080E040E050E020E030E00FC097
:10242000242F30E02E50304081E090E002C0880F31
:10243000991F2A95E2F747E250E028E230E08187D1
:1024400033872287558744870895DC011C96ED91D8
:10245000FC911D97309781F0808119969C91199776
:10246000892B80831A96ED91FC911B979081199688
:102470008C918095892380830895A0E0B0E0E2E408
:10248000F2E1D0C4EC015B01642F7901402F20E020
:102490008FDFCE018F5B9F4FFC011082DE01AE5BB0
:1024A000BF4F1C92FE01ED5BFF4F1082FF86EE8650
:1024B00040E061E070E06F017D018C014EC0F501EC
:1024C000E40FF11D8081883050F49B0102C0220F7F
:1024D000331F8A95E2F7922F29E230E01FC08E3039
:1024E00060F490E00897FB0102C0EE0FFF1F8A9591
:1024F000E2F79E2F23E230E011C0853120F090E01A
:1025000020E030E00BC090E00E979B0102C0220F4C
:10251000331F8A95E2F7922F26E230E0E42FF0E0B5
:10252000DE01AE0FBF1F51969C93EE0FFF1FEC0F05
:10253000FD1F32A321A32332310511F4F80109C094
:102540002632310511F4F70104C02932310521F496
:10255000F6018081982B90834F5F8885481708F497
:10256000AECFCDB7DEB7EAE079C4A0E0B0E0EAEBE9
:10257000F2E156C4EC015B01CF5BDF4F4991A991B9
:102580008880C354D04090E009C0E92FF0E0EE0FFE
:10259000FF1FEA0DFB1D118210829F5F888598172F
:1025A000A0F384B1CF5BDF4F3991832B84B987B11E
:1025B0002991822B87B98AB19881C354D040892B45
:1025C0008AB985B1832B85B988B1822B88B98BB143
:1025D000892B8BB9EAE0F0E06F9364E06A95F1F73C
:1025E0006F913197C9F784B13095832384B987B14E
:1025F0002095822387B98AB1909589238AB985B1BC
:10260000382335B988B1282328B98BB198239BB9D1
:102610009090B000C090B1008091B0008360809332
:10262000B00082E08093B100D090B20060E070E032
:102630003AC05091B2005D19650F711DE3B0E41608
:1026400009F04FC0F6B0FA1609F04BC089B18815F1
:1026500009F047C025C0A42FB0E09D01220F331F11
:102660008501020F131FF80180819181892BA1F44C
:102670002C0F3D1FF90181A192A1FC01208130E0C6
:10268000AC0FBD1F51968C9190E028233923232B4A
:1026900019F4F801718360834F5F88854817D8F279
:1026A000D50E4E2DAF2D8E859F856817790708F2C0
:1026B0009092B000C092B10020E00FC0E22FF0E095
:1026C000EE0FFF1FEA0DFB1D80819181892B21F404
:1026D0008E859F85918380832F5F8885281770F36F
:1026E00005C0E3B0F6B089B040E0D7CFCDB7DEB7D4
:1026F000ECE0B2C3A0E0B0E0EFE7F3E195C3EC019A
:102700008B01D0907C00E0907A00C7B0F8B0809147
:102710007A0086FDFCCF90E009C0E92FF0E0EE0FD3
:10272000FF1FE00FF11F118210829F5F88859817AD
:10273000A0F397B18AA18095982397B998B189237E
:1027400088B987E880937A0050E025C0FE01E40F45
:10275000F11D8189806480937C0080917A0080647F
:1027600080937A0080917A0086FDFCCFE42FF0E020
:10277000EE0FFF1FE00FF11F2091780030917900DC
:1027800080819181820F931F918380834F5F888521
:102790004817E0F25F5F89A1581710F040E016C0BB
:1027A00040E0F5CFE42FF0E0EE0FFF1FE00FF11F48
:1027B00069A1862F90E09595879520813181820FC0
:1027C000931F70E0C3D2718360834F5F8885481781
:1027D00048F3D0927C00E0927A00F8B8C7B8CDB741
:1027E000DEB7E8E03DC3A0E2B0E0E8EFF3E11BC3F1
:1027F0008C017B01D42E842F81508230B0F4D8011B
:102800001C96ED91FC911D97309779F08081199677
:102810009C911997892B80831A96ED91FC911B97B7
:10282000808119969C91892B8083F8018089882367
:1028300039F5C02EB12EC801B70197DED8011C961C
:10284000ED91FC911D97309781F0808119969C91B4
:102850001997892B80831A96ED91FC911B97908193
:1028600019968C91809589238083B2E0DB1609F05C
:1028700050C08C2D9B2DBE016F5F7F4F76DE25C033
:10288000C02EB12EC801B70135DFD8011C96ED91DD
:10289000FC911D97309781F0808119969C91199732
:1028A000892B80831A96ED91FC911B979081199644
:1028B0008C91809589238083B2E0DB1651F58C2DB5
:1028C0009B2DBE016F5F7F4F15DF40E0BE016F5F44
:1028D0007F4F1AC0E42FF0E0EE0FFF1F6701CE0E0E
:1028E000DF1EE60FF71FD8011E962D913C911F9712
:1028F00080819181281B390BF60180819181820FA3
:10290000931F918380834F5FD80118968C9148174D
:1029100008F3A096E9E0A3C2A0E0B0E0E1E9F4E1A9
:1029200080C2EC01162F072F942E22E0421711F0DF
:10293000442351F48C819D81892B09F4A1C08E819F
:102940009F81892B09F49CC0892D8150823050F4DD
:1029500088819981892B09F493C08A819B81892B75
:1029600009F48EC0CE01612F702F492D3CDF812FDD
:10297000902F9C015901CC24DD2400E010E07AC0A6
:1029800081E0981669F4EA81FB81E00FF11F208154
:102990003181E881F981E00FF11F408151813DC013
:1029A000AC81BD81992059F4EE81FF81E00FF11FC8
:1029B00020813181A00FB11F4D915C912EC0A00FDD
:1029C000B11F8D919C91E881F981E00FF11F208169
:1029D0003181EE85FF858217930710F4AF0105C0A2
:1029E000A9014E0F5F1F481B590BEE81FF81E00FBD
:1029F000F11F60817181EA81FB81E00FF11F80810D
:102A00009181EE85FF856817790710F49F0105C055
:102A10009C012E0F3F1F261B370B7901E41AF50A84
:102A2000F1F0F5016081718180E090E09A0140E071
:102A300050E0621B730B840B950B28EE33E040E0F3
:102A400050E059D1970140E050E0C9D1C901F3E00D
:102A5000293E3F0714F088EE93E097FF02C080E024
:102A600090E0F501819391935F010894C11CD11C02
:102A70000E5F1F4F888590E0C816D9060CF480CFF2
:102A8000CDB7DEB7EBE0E9C1CF93DF93EC018A81EC
:102A90009B81009709F0BBD28E819F81009709F03E
:102AA000B6D288819981009709F0B1D28C819D813D
:102AB000009709F0ACD2DF91CF910895A3E6B0E082
:102AC000E3E6F5E1A7C17C015B016A01A2962FAFA5
:102AD000A297DA018D919C91892B09F5F7018085E8
:102AE00090E0880F991FD3D1D6018D939C930097C6
:102AF00009F4DDC020E030E00CC0C901880F991F47
:102B0000D601ED91FC91E80FF91F118210822F5F21
:102B10003F4FF701808590E02817390774F3D501FE
:102B20008D919C91892B89F000E010E03E01089482
:102B3000611C711C41E4242E312C2C0E3D1E31E20F
:102B4000432E512C4C0E5D1E27C0F701808590E06E
:102B5000880F991F9CD1D5018D939C93009709F400
:102B6000A6C020E030E011C0C901880F991FD5012F
:102B7000ED91FC91E80FF91FD7011E968D919C9164
:102B80001F97918380832F5F3F4FF701808590E0EF
:102B9000281739074CF3C8CFC701B301A2964FAD30
:102BA000A29721DED70118968C91882E9924A10135
:102BB000F301A4965FAE4EAEA49760E070E034C01F
:102BC0000115110559F0A496AEADBFADA4972D9196
:102BD0003C91808191812817390758F48081918137
:102BE000A496AEADBFADA4978D939C93011511052E
:102BF00041F0DA012D913C918081918182179307F8
:102C000028F480819181DA018D939C936F5F7F4FCF
:102C10004E5F5F4F3296A4968EAD9FADA4970296FD
:102C2000A4969FAF8EAFA497681579054CF20F5FFD
:102C30001F4F0A30110509F0AFCF40E050E020E00F
:102C400030E08E010F5B1F4FBE016F5D7F4F28C0CC
:102C5000F801E20FF31F80809180F601A081B1811D
:102C6000A20FB31F8D919C9111978815990510F4AF
:102C70008D929C92FB01E20FF31F80809180F50101
:102C8000A081B181A20FB31F8D919C9111978816DD
:102C9000990610F48D929C924F5F5F4F2E5F3F4FCD
:102CA000D70118968C9190E0481759078CF2CD59AE
:102CB000DF4FE2E1CBC01F93CF93DF93EC01162FE0
:102CC000862F8150823038F4AE014E5F5F4FCE01C7
:102CD000BE0121E0F3DE123011F0112341F4AE0108
:102CE0004A5F5F4FCE012496BE0120E0E7DEDF9110
:102CF000CF911F910895629FD001739FF001829F31
:102D0000E00DF11D649FE00DF11D929FF00D839F7A
:102D1000F00D749FF00D659FF00D9927729FB00D17
:102D2000E11DF91F639FB00DE11DF91FBD01CF012A
:102D300011240895991B79E004C0991F961708F093
:102D4000961B881F7A95C9F780950895AA1BBB1B0F
:102D500051E107C0AA1FBB1FA617B70710F0A61B9B
:102D6000B70B881F991F5A95A9F780959095BC01BC
:102D7000CD01089597FB092E07260AD077FD04D0D0
:102D8000E5DF06D000201AF4709561957F4F089515
:102D9000F6F7909581959F4F0895A1E21A2EAA1BF0
:102DA000BB1BFD010DC0AA1FBB1FEE1FFF1FA217FB
:102DB000B307E407F50720F0A21BB30BE40BF50BF8
:102DC000661F771F881F991F1A9469F76095709581
:102DD000809590959B01AC01BD01CF01089597FBB3
:102DE000092E05260ED057FD04D0D7DF0AD0001CCF
:102DF00038F450954095309521953F4F4F4F5F4F98
:102E00000895F6F790958095709561957F4F8F4F57
:102E10009F4F08952F923F924F925F926F927F92B1
:102E20008F929F92AF92BF92CF92DF92EF92FF92DA
:102E30000F931F93CF93DF93CDB7DEB7CA1BDB0B86
:102E40000FB6F894DEBF0FBECDBF09942A8839882B
:102E500048885F846E847D848C849B84AA84B98432
:102E6000C884DF80EE80FD800C811B81AA81B9813E
:102E7000CE0FD11D0FB6F894DEBF0FBECDBFED0152
:102E80000895EE0FFF1F0590F491E02D0994CF9364
:102E9000DF93682F792F8230910510F462E070E0A3
:102EA000A0911D03B0911E03CA2FDB2FE0E0F0E0DC
:102EB00040E050E026C0888199818617970771F419
:102EC0008A819B81309719F09383828304C0909309
:102ED0001E0380931D03EC2FFD2F3BC0681779075D
:102EE00040F44115510519F08417950710F4482F47
:102EF000592FEC2FFD2F8A819B81282F392FC22F2C
:102F0000D32F2097C1F641155105E9F1842F952F54
:102F1000861B970B049710F4642F752FE0E0F0E008
:102F200030C08D919C9111978417950711F5641706
:102F3000750789F412968D919C911397309719F02B
:102F40009383828304C090931E0380931D03EA2F12
:102F5000FB2F329657C0842F952F861B970BEA2F95
:102F6000FB2FE80FF91F6193719302978D939C9348
:102F700049C0EA2FFB2F82819381282F392FA22F5E
:102F8000B32F109771F680911B0390911C03892B2E
:102F900041F48091A3029091A40290931C0380932A
:102FA0001B034091A5025091A6024115510541F421
:102FB0004DB75EB78091A1029091A202481B590BB8
:102FC00020911B0330911C0324173507C8F4842F6C
:102FD000952F821B930B8617970790F0462F572F3C
:102FE0004E5F5F4F8417950758F0420F531F509361
:102FF0001C0340931B03E22FF32F6193719302C0D4
:10300000E0E0F0E08E2F9F2FDF91CF910895CF93D6
:10301000DF93009709F456C0C82FD92F22971B823F
:103020001A82A0911D03B0911E03109711F140E088
:1030300050E0AC17BD0710F1BB83AA83EC2FFD2F26
:1030400021913191E20FF31FAE17BF0779F48D91F3
:103050009C911197280F391F2E5F3F4F398328838A
:1030600012968D919C9113979B838A8341155105EC
:1030700081F4D0931E03C0931D0324C012968D913A
:103080009C9113974A2F5B2F009719F0A82FB92F07
:10309000D0CFE42FF52FD383C28321913191E20F5A
:1030A000F31FCE17DF0771F488819981280F391F2C
:1030B0002E5F3F4FE42FF52F318320838A819B8140
:1030C00093838283DF91CF910895A0E0B0E0EAE698
:1030D000F8E1A8CEC82FD92FA880B980CA80DB809C
:1030E000A114B104C104D10441F484E2A82E89EDF5
:1030F000B82E8BE5C82E87E0D82E9D2D8C2D7B2DEC
:103100006A2D2DE133EF41E050E069DE27EA31E43A
:1031100040E050E0F0DDE62EF72E082F192F9D2D10
:103120008C2D7B2D6A2D2DE133EF41E050E057DEF1
:10313000952F842F732F622F2CEE34EF4FEF5FEF1C
:10314000DADD6E0D7F1D801F911F97FF04C0615057
:10315000704080409048688379838A839B83262FC0
:10316000372F3F77822F932FCDB7DEB7EAE076CEA9
:10317000ACCF87EA92E0A9CFA0E0B0E08093A702AD
:103180009093A802A093A902B093AA02089510E018
:10319000C2E8D0E003C0FE0176DE2296C438D10733
:0631A000D1F7F894FFCF07
:1031A6005072657373204220746F20737461727459
:1031B6002100423A2072657472792E00433A2065E6
:1031C6006E7465722E004E4F524D00430000000093
:1031D600006A00202063616C6920200070726F67AE
:1031E6007265737300507265737320422100004448
:1031F600004100000000008602464F5257415244EB
:10320600004C454654004C45465432005249474806
:103216005400524947485432005354524149474892
:10322600540000000000B505040400D007F4010FA7
:10323600000208010E0F101112000000000000002D
:10324600000001020203030303040404040404044B
:103256000405050505050505050505050505050519
:1032660005060606060606060606060606060606F9
:1032760006060606060606060606060606060606E8
:1032860006070707070707070707070707070707C9
:1032960007070707070707070707070707070707B8
:1032A60007070707070707070707070707070707A8
:1032B6000707070707070707070707070707070798
:1032C6000708080808080808080808080808080879
:1032D6000808080808080808080808080808080868
:1032E6000808080808080808080808080808080858
:1032F6000808080808080808080808080808080848
:103306000808080808080808080808080808080837
:103316000808080808080808080808080808080827
:103326000808080808080808080808080808080817
:103336000808080808080808080808080808080807
:0C3346000820001F030000010000000030
:00000001FF
